{
  "contractName": "attacksContract",
  "abi": [
    {
      "constant": true,
      "inputs": [],
      "name": "owner",
      "outputs": [
        {
          "name": "",
          "type": "address"
        }
      ],
      "payable": false,
      "stateMutability": "view",
      "type": "function"
    },
    {
      "constant": true,
      "inputs": [],
      "name": "logicAdr",
      "outputs": [
        {
          "name": "",
          "type": "address"
        }
      ],
      "payable": false,
      "stateMutability": "view",
      "type": "function"
    },
    {
      "constant": true,
      "inputs": [],
      "name": "baseDamage",
      "outputs": [
        {
          "name": "",
          "type": "uint256"
        }
      ],
      "payable": false,
      "stateMutability": "view",
      "type": "function"
    },
    {
      "constant": false,
      "inputs": [
        {
          "name": "newOwner",
          "type": "address"
        }
      ],
      "name": "transferOwnership",
      "outputs": [],
      "payable": false,
      "stateMutability": "nonpayable",
      "type": "function"
    },
    {
      "inputs": [
        {
          "name": "adr",
          "type": "address"
        }
      ],
      "payable": false,
      "stateMutability": "nonpayable",
      "type": "constructor"
    },
    {
      "anonymous": false,
      "inputs": [
        {
          "indexed": false,
          "name": "adr",
          "type": "address"
        },
        {
          "indexed": false,
          "name": "team",
          "type": "string"
        },
        {
          "indexed": false,
          "name": "country",
          "type": "string"
        },
        {
          "indexed": false,
          "name": "victim",
          "type": "address"
        },
        {
          "indexed": false,
          "name": "nick",
          "type": "string"
        },
        {
          "indexed": false,
          "name": "subs",
          "type": "uint256"
        }
      ],
      "name": "newOwner",
      "type": "event"
    },
    {
      "anonymous": false,
      "inputs": [
        {
          "indexed": false,
          "name": "adr",
          "type": "address"
        },
        {
          "indexed": false,
          "name": "num",
          "type": "uint256"
        },
        {
          "indexed": false,
          "name": "name",
          "type": "string"
        },
        {
          "indexed": false,
          "name": "team",
          "type": "string"
        },
        {
          "indexed": false,
          "name": "victim",
          "type": "address"
        },
        {
          "indexed": false,
          "name": "nick",
          "type": "string"
        }
      ],
      "name": "attackInflicted",
      "type": "event"
    },
    {
      "anonymous": false,
      "inputs": [
        {
          "indexed": true,
          "name": "previousOwner",
          "type": "address"
        },
        {
          "indexed": true,
          "name": "newOwner",
          "type": "address"
        }
      ],
      "name": "OwnershipTransferred",
      "type": "event"
    },
    {
      "constant": false,
      "inputs": [
        {
          "name": "adr",
          "type": "address"
        }
      ],
      "name": "setPlayersContract",
      "outputs": [
        {
          "name": "",
          "type": "bool"
        }
      ],
      "payable": false,
      "stateMutability": "nonpayable",
      "type": "function"
    },
    {
      "constant": false,
      "inputs": [
        {
          "name": "adr",
          "type": "address"
        }
      ],
      "name": "setCountriesContract",
      "outputs": [
        {
          "name": "",
          "type": "bool"
        }
      ],
      "payable": false,
      "stateMutability": "nonpayable",
      "type": "function"
    },
    {
      "constant": false,
      "inputs": [
        {
          "name": "adr",
          "type": "address"
        }
      ],
      "name": "setLogicAddress",
      "outputs": [
        {
          "name": "",
          "type": "bool"
        }
      ],
      "payable": false,
      "stateMutability": "nonpayable",
      "type": "function"
    },
    {
      "constant": false,
      "inputs": [
        {
          "name": "adr",
          "type": "address"
        }
      ],
      "name": "setBombCardContract",
      "outputs": [
        {
          "name": "",
          "type": "bool"
        }
      ],
      "payable": false,
      "stateMutability": "nonpayable",
      "type": "function"
    },
    {
      "constant": false,
      "inputs": [
        {
          "name": "adr",
          "type": "address"
        },
        {
          "name": "quantity",
          "type": "uint256"
        },
        {
          "name": "to",
          "type": "string"
        }
      ],
      "name": "attack",
      "outputs": [],
      "payable": false,
      "stateMutability": "nonpayable",
      "type": "function"
    },
    {
      "constant": false,
      "inputs": [
        {
          "name": "adr",
          "type": "address"
        },
        {
          "name": "index",
          "type": "uint256"
        },
        {
          "name": "name",
          "type": "string"
        }
      ],
      "name": "applyBombCard",
      "outputs": [
        {
          "name": "",
          "type": "bool"
        }
      ],
      "payable": false,
      "stateMutability": "nonpayable",
      "type": "function"
    }
  ],
  "bytecode": "0x608060405234801561001057600080fd5b50604051602080612a8183398101806040528101908080519060200190929190505050336000806101000a81548173ffffffffffffffffffffffffffffffffffffffff021916908373ffffffffffffffffffffffffffffffffffffffff1602179055506000600260006101000a81548173ffffffffffffffffffffffffffffffffffffffff021916908373ffffffffffffffffffffffffffffffffffffffff160217905550806000806101000a81548173ffffffffffffffffffffffffffffffffffffffff021916908373ffffffffffffffffffffffffffffffffffffffff1602179055506000600360006101000a81548173ffffffffffffffffffffffffffffffffffffffff021916908373ffffffffffffffffffffffffffffffffffffffff1602179055506000600460006101000a81548173ffffffffffffffffffffffffffffffffffffffff021916908373ffffffffffffffffffffffffffffffffffffffff1602179055506000600560006101000a81548173ffffffffffffffffffffffffffffffffffffffff021916908373ffffffffffffffffffffffffffffffffffffffff160217905550506128b6806101cb6000396000f3006080604052600436106100a4576000357c0100000000000000000000000000000000000000000000000000000000900463ffffffff16806310aa5276146100a95780638194783714610104578063829bd3ad146101815780638da5cb5b146101dc578063bde5e2fe14610233578063ccaa07da14610298578063d15bf7ef146102ef578063e0cf4c741461034a578063f2fde38b14610375578063fdcfc3ef146103b8575b600080fd5b3480156100b557600080fd5b506100ea600480360381019080803573ffffffffffffffffffffffffffffffffffffffff169060200190929190505050610413565b604051808215151515815260200191505060405180910390f35b34801561011057600080fd5b50610167600480360381019080803573ffffffffffffffffffffffffffffffffffffffff169060200190929190803590602001909291908035906020019082018035906020019190919293919293905050506104ba565b604051808215151515815260200191505060405180910390f35b34801561018d57600080fd5b506101c2600480360381019080803573ffffffffffffffffffffffffffffffffffffffff169060200190929190505050610bde565b604051808215151515815260200191505060405180910390f35b3480156101e857600080fd5b506101f1610c85565b604051808273ffffffffffffffffffffffffffffffffffffffff1673ffffffffffffffffffffffffffffffffffffffff16815260200191505060405180910390f35b34801561023f57600080fd5b50610296600480360381019080803573ffffffffffffffffffffffffffffffffffffffff16906020019092919080359060200190929190803590602001908201803590602001919091929391929390505050610caa565b005b3480156102a457600080fd5b506102ad612538565b604051808273ffffffffffffffffffffffffffffffffffffffff1673ffffffffffffffffffffffffffffffffffffffff16815260200191505060405180910390f35b3480156102fb57600080fd5b50610330600480360381019080803573ffffffffffffffffffffffffffffffffffffffff16906020019092919050505061255e565b604051808215151515815260200191505060405180910390f35b34801561035657600080fd5b5061035f612605565b6040518082815260200191505060405180910390f35b34801561038157600080fd5b506103b6600480360381019080803573ffffffffffffffffffffffffffffffffffffffff16906020019092919050505061260b565b005b3480156103c457600080fd5b506103f9600480360381019080803573ffffffffffffffffffffffffffffffffffffffff169060200190929190505050612760565b604051808215151515815260200191505060405180910390f35b60003373ffffffffffffffffffffffffffffffffffffffff166000809054906101000a900473ffffffffffffffffffffffffffffffffffffffff1673ffffffffffffffffffffffffffffffffffffffff1614151561047057600080fd5b81600360006101000a81548173ffffffffffffffffffffffffffffffffffffffff021916908373ffffffffffffffffffffffffffffffffffffffff16021790555060019050919050565b6000606080600260009054906101000a900473ffffffffffffffffffffffffffffffffffffffff1673ffffffffffffffffffffffffffffffffffffffff163373ffffffffffffffffffffffffffffffffffffffff1614151561051b57600080fd5b6000600460009054906101000a900473ffffffffffffffffffffffffffffffffffffffff1673ffffffffffffffffffffffffffffffffffffffff1663e9ef48cc87876040518363ffffffff167c01000000000000000000000000000000000000000000000000000000000281526004018080602001828103825284848281815260200192508082843782019150509350505050602060405180830381600087803b1580156105c857600080fd5b505af11580156105dc573d6000803e3d6000fd5b505050506040513d60208110156105f257600080fd5b8101908080519060200190929190505050148015610713575060011515600560009054906101000a900473ffffffffffffffffffffffffffffffffffffffff1673ffffffffffffffffffffffffffffffffffffffff16637ee82e8589896040518363ffffffff167c0100000000000000000000000000000000000000000000000000000000028152600401808373ffffffffffffffffffffffffffffffffffffffff1673ffffffffffffffffffffffffffffffffffffffff16815260200182815260200192505050602060405180830381600087803b1580156106d457600080fd5b505af11580156106e8573d6000803e3d6000fd5b505050506040513d60208110156106fe57600080fd5b81019080805190602001909291905050501515145b151561071e57600080fd5b600360009054906101000a900473ffffffffffffffffffffffffffffffffffffffff1673ffffffffffffffffffffffffffffffffffffffff166387529f0f886040518263ffffffff167c0100000000000000000000000000000000000000000000000000000000028152600401808273ffffffffffffffffffffffffffffffffffffffff1673ffffffffffffffffffffffffffffffffffffffff168152602001915050600060405180830381600087803b1580156107db57600080fd5b505af11580156107ef573d6000803e3d6000fd5b505050506040513d6000823e3d601f19601f82011682018060405250602081101561081957600080fd5b81019080805164010000000081111561083157600080fd5b8281019050602081018481111561084757600080fd5b815185600182028301116401000000008211171561086457600080fd5b50509291905050509150600360009054906101000a900473ffffffffffffffffffffffffffffffffffffffff1673ffffffffffffffffffffffffffffffffffffffff1663adaccd74886040518263ffffffff167c0100000000000000000000000000000000000000000000000000000000028152600401808273ffffffffffffffffffffffffffffffffffffffff1673ffffffffffffffffffffffffffffffffffffffff168152602001915050600060405180830381600087803b15801561092b57600080fd5b505af115801561093f573d6000803e3d6000fd5b505050506040513d6000823e3d601f19601f82011682018060405250602081101561096957600080fd5b81019080805164010000000081111561098157600080fd5b8281019050602081018481111561099757600080fd5b81518560018202830111640100000000821117156109b457600080fd5b5050929190505050905060011515600460009054906101000a900473ffffffffffffffffffffffffffffffffffffffff1673ffffffffffffffffffffffffffffffffffffffff1663db1bdaec8989898988886040518763ffffffff167c0100000000000000000000000000000000000000000000000000000000028152600401808773ffffffffffffffffffffffffffffffffffffffff1673ffffffffffffffffffffffffffffffffffffffff16815260200186815260200180602001806020018060200184810384528888828181526020019250808284378201915050848103835286818151815260200191508051906020019080838360005b83811015610aca578082015181840152602081019050610aaf565b50505050905090810190601f168015610af75780820380516001836020036101000a031916815260200191505b50848103825285818151815260200191508051906020019080838360005b83811015610b30578082015181840152602081019050610b15565b50505050905090810190601f168015610b5d5780820380516001836020036101000a031916815260200191505b509950505050505050505050602060405180830381600087803b158015610b8357600080fd5b505af1158015610b97573d6000803e3d6000fd5b505050506040513d6020811015610bad57600080fd5b810190808051906020019092919050505015151415610bcf5760019250610bd4565b600092505b5050949350505050565b60003373ffffffffffffffffffffffffffffffffffffffff166000809054906101000a900473ffffffffffffffffffffffffffffffffffffffff1673ffffffffffffffffffffffffffffffffffffffff16141515610c3b57600080fd5b81600460006101000a81548173ffffffffffffffffffffffffffffffffffffffff021916908373ffffffffffffffffffffffffffffffffffffffff16021790555060019050919050565b6000809054906101000a900473ffffffffffffffffffffffffffffffffffffffff1681565b6000606080600080600080600260009054906101000a900473ffffffffffffffffffffffffffffffffffffffff1673ffffffffffffffffffffffffffffffffffffffff163373ffffffffffffffffffffffffffffffffffffffff16141515610d1157600080fd5b600460009054906101000a900473ffffffffffffffffffffffffffffffffffffffff1673ffffffffffffffffffffffffffffffffffffffff16634aaf4a128a8a6040518363ffffffff167c01000000000000000000000000000000000000000000000000000000000281526004018080602001828103825284848281815260200192508082843782019150509350505050602060405180830381600087803b158015610dbc57600080fd5b505af1158015610dd0573d6000803e3d6000fd5b505050506040513d6020811015610de657600080fd5b81019080805190602001909291905050509650600360009054906101000a900473ffffffffffffffffffffffffffffffffffffffff1673ffffffffffffffffffffffffffffffffffffffff166387529f0f8c6040518263ffffffff167c0100000000000000000000000000000000000000000000000000000000028152600401808273ffffffffffffffffffffffffffffffffffffffff1673ffffffffffffffffffffffffffffffffffffffff168152602001915050600060405180830381600087803b158015610eb657600080fd5b505af1158015610eca573d6000803e3d6000fd5b505050506040513d6000823e3d601f19601f820116820180604052506020811015610ef457600080fd5b810190808051640100000000811115610f0c57600080fd5b82810190506020810184811115610f2257600080fd5b8151856001820283011164010000000082111715610f3f57600080fd5b50509291905050509550600360009054906101000a900473ffffffffffffffffffffffffffffffffffffffff1673ffffffffffffffffffffffffffffffffffffffff1663adaccd748c6040518263ffffffff167c0100000000000000000000000000000000000000000000000000000000028152600401808273ffffffffffffffffffffffffffffffffffffffff1673ffffffffffffffffffffffffffffffffffffffff168152602001915050600060405180830381600087803b15801561100657600080fd5b505af115801561101a573d6000803e3d6000fd5b505050506040513d6000823e3d601f19601f82011682018060405250602081101561104457600080fd5b81019080805164010000000081111561105c57600080fd5b8281019050602081018481111561107257600080fd5b815185600182028301116401000000008211171561108f57600080fd5b50509291905050509450611288600360009054906101000a900473ffffffffffffffffffffffffffffffffffffffff1673ffffffffffffffffffffffffffffffffffffffff166316e8f2c3896040518263ffffffff167c0100000000000000000000000000000000000000000000000000000000028152600401808273ffffffffffffffffffffffffffffffffffffffff1673ffffffffffffffffffffffffffffffffffffffff168152602001915050602060405180830381600087803b15801561115957600080fd5b505af115801561116d573d6000803e3d6000fd5b505050506040513d602081101561118357600080fd5b8101908080519060200190929190505050600460009054906101000a900473ffffffffffffffffffffffffffffffffffffffff1673ffffffffffffffffffffffffffffffffffffffff1663852c1f638c8c6040518363ffffffff167c01000000000000000000000000000000000000000000000000000000000281526004018080602001828103825284848281815260200192508082843782019150509350505050602060405180830381600087803b15801561123f57600080fd5b505af1158015611253573d6000803e3d6000fd5b505050506040513d602081101561126957600080fd5b810190808051906020019092919050505061280790919063ffffffff16565b9350611394600360009054906101000a900473ffffffffffffffffffffffffffffffffffffffff1673ffffffffffffffffffffffffffffffffffffffff16639cd431668d6040518263ffffffff167c0100000000000000000000000000000000000000000000000000000000028152600401808273ffffffffffffffffffffffffffffffffffffffff1673ffffffffffffffffffffffffffffffffffffffff168152602001915050602060405180830381600087803b15801561134a57600080fd5b505af115801561135e573d6000803e3d6000fd5b505050506040513d602081101561137457600080fd5b81019080805190602001909291905050508b61280790919063ffffffff16565b92506115a9600360009054906101000a900473ffffffffffffffffffffffffffffffffffffffff1673ffffffffffffffffffffffffffffffffffffffff16637570d3368d6040518263ffffffff167c0100000000000000000000000000000000000000000000000000000000028152600401808273ffffffffffffffffffffffffffffffffffffffff1673ffffffffffffffffffffffffffffffffffffffff168152602001915050602060405180830381600087803b15801561145657600080fd5b505af115801561146a573d6000803e3d6000fd5b505050506040513d602081101561148057600080fd5b810190808051906020019092919050505061159b600360009054906101000a900473ffffffffffffffffffffffffffffffffffffffff1673ffffffffffffffffffffffffffffffffffffffff1663817c89668f6040518263ffffffff167c0100000000000000000000000000000000000000000000000000000000028152600401808273ffffffffffffffffffffffffffffffffffffffff1673ffffffffffffffffffffffffffffffffffffffff168152602001915050602060405180830381600087803b15801561155157600080fd5b505af1158015611565573d6000803e3d6000fd5b505050506040513d602081101561157b57600080fd5b81019080805190602001909291905050508d61283f90919063ffffffff16565b61280790919063ffffffff16565b915083831115611f40576116cf600360009054906101000a900473ffffffffffffffffffffffffffffffffffffffff1673ffffffffffffffffffffffffffffffffffffffff16639cd431668d6040518263ffffffff167c0100000000000000000000000000000000000000000000000000000000028152600401808273ffffffffffffffffffffffffffffffffffffffff1673ffffffffffffffffffffffffffffffffffffffff168152602001915050602060405180830381600087803b15801561167357600080fd5b505af1158015611687573d6000803e3d6000fd5b505050506040513d602081101561169d57600080fd5b81019080805190602001909291905050506116c1868661285b90919063ffffffff16565b61287490919063ffffffff16565b905060011515600460009054906101000a900473ffffffffffffffffffffffffffffffffffffffff1673ffffffffffffffffffffffffffffffffffffffff1663c1ecfd778d89868e8e888d6040518863ffffffff167c0100000000000000000000000000000000000000000000000000000000028152600401808873ffffffffffffffffffffffffffffffffffffffff1673ffffffffffffffffffffffffffffffffffffffff16815260200180602001878152602001806020018581526020018060200184810384528a818151815260200191508051906020019080838360005b838110156117cb5780820151818401526020810190506117b0565b50505050905090810190601f1680156117f85780820380516001836020036101000a031916815260200191505b5084810383528888828181526020019250808284378201915050848103825285818151815260200191508051906020019080838360005b8381101561184a57808201518184015260208101905061182f565b50505050905090810190601f1680156118775780820380516001836020036101000a031916815260200191505b509a5050505050505050505050602060405180830381600087803b15801561189e57600080fd5b505af11580156118b2573d6000803e3d6000fd5b505050506040513d60208110156118c857600080fd5b81019080805190602001909291905050501515141515611ac157600360009054906101000a900473ffffffffffffffffffffffffffffffffffffffff1673ffffffffffffffffffffffffffffffffffffffff166385c5ce4d8c611934848e61285b90919063ffffffff16565b60016040518463ffffffff167c0100000000000000000000000000000000000000000000000000000000028152600401808473ffffffffffffffffffffffffffffffffffffffff1673ffffffffffffffffffffffffffffffffffffffff168152602001838152602001821515151581526020019350505050600060405180830381600087803b1580156119c657600080fd5b505af11580156119da573d6000803e3d6000fd5b50505050600360009054906101000a900473ffffffffffffffffffffffffffffffffffffffff1673ffffffffffffffffffffffffffffffffffffffff1663a18869798c60026040518363ffffffff167c0100000000000000000000000000000000000000000000000000000000028152600401808373ffffffffffffffffffffffffffffffffffffffff1673ffffffffffffffffffffffffffffffffffffffff16815260200182815260200192505050600060405180830381600087803b158015611aa457600080fd5b505af1158015611ab8573d6000803e3d6000fd5b50505050611f3b565b600360009054906101000a900473ffffffffffffffffffffffffffffffffffffffff1673ffffffffffffffffffffffffffffffffffffffff1663a18869798c60056040518363ffffffff167c0100000000000000000000000000000000000000000000000000000000028152600401808373ffffffffffffffffffffffffffffffffffffffff1673ffffffffffffffffffffffffffffffffffffffff16815260200182815260200192505050600060405180830381600087803b158015611b8757600080fd5b505af1158015611b9b573d6000803e3d6000fd5b50505050600360009054906101000a900473ffffffffffffffffffffffffffffffffffffffff1673ffffffffffffffffffffffffffffffffffffffff166385c5ce4d8c8c60016040518463ffffffff167c0100000000000000000000000000000000000000000000000000000000028152600401808473ffffffffffffffffffffffffffffffffffffffff1673ffffffffffffffffffffffffffffffffffffffff168152602001838152602001821515151581526020019350505050600060405180830381600087803b158015611c7157600080fd5b505af1158015611c85573d6000803e3d6000fd5b50505050600360009054906101000a900473ffffffffffffffffffffffffffffffffffffffff1673ffffffffffffffffffffffffffffffffffffffff1663df84092a8c8960016040518463ffffffff167c0100000000000000000000000000000000000000000000000000000000028152600401808473ffffffffffffffffffffffffffffffffffffffff1673ffffffffffffffffffffffffffffffffffffffff1681526020018373ffffffffffffffffffffffffffffffffffffffff1673ffffffffffffffffffffffffffffffffffffffff168152602001821515151581526020019350505050600060405180830381600087803b158015611d8757600080fd5b505af1158015611d9b573d6000803e3d6000fd5b505050507f26a89e03981c2e8cd2af97fbd4203df9c79309b75c42c7f182772ce45452b7238b878b8b8b8a87604051808873ffffffffffffffffffffffffffffffffffffffff1673ffffffffffffffffffffffffffffffffffffffff16815260200180602001806020018673ffffffffffffffffffffffffffffffffffffffff1673ffffffffffffffffffffffffffffffffffffffff1681526020018060200185815260200184810384528a818151815260200191508051906020019080838360005b83811015611e79578082015181840152602081019050611e5e565b50505050905090810190601f168015611ea65780820380516001836020036101000a031916815260200191505b5084810383528989828181526020019250808284378201915050848103825286818151815260200191508051906020019080838360005b83811015611ef8578082015181840152602081019050611edd565b50505050905090810190601f168015611f255780820380516001836020036101000a031916815260200191505b509a505050505050505050505060405180910390a15b61252b565b600360009054906101000a900473ffffffffffffffffffffffffffffffffffffffff1673ffffffffffffffffffffffffffffffffffffffff166385c5ce4d8c8c60016040518463ffffffff167c0100000000000000000000000000000000000000000000000000000000028152600401808473ffffffffffffffffffffffffffffffffffffffff1673ffffffffffffffffffffffffffffffffffffffff168152602001838152602001821515151581526020019350505050600060405180830381600087803b15801561201257600080fd5b505af1158015612026573d6000803e3d6000fd5b50505050600460009054906101000a900473ffffffffffffffffffffffffffffffffffffffff1673ffffffffffffffffffffffffffffffffffffffff1663752968c988612185600360009054906101000a900473ffffffffffffffffffffffffffffffffffffffff1673ffffffffffffffffffffffffffffffffffffffff166316e8f2c38c6040518263ffffffff167c0100000000000000000000000000000000000000000000000000000000028152600401808273ffffffffffffffffffffffffffffffffffffffff1673ffffffffffffffffffffffffffffffffffffffff168152602001915050602060405180830381600087803b15801561212957600080fd5b505af115801561213d573d6000803e3d6000fd5b505050506040513d602081101561215357600080fd5b8101908080519060200190929190505050612177888a61285b90919063ffffffff16565b61287490919063ffffffff16565b8c8c60008b60016040518863ffffffff167c0100000000000000000000000000000000000000000000000000000000028152600401808873ffffffffffffffffffffffffffffffffffffffff1673ffffffffffffffffffffffffffffffffffffffff1681526020018781526020018060200185151515158152602001806020018415151515815260200183810383528888828181526020019250808284378201915050838103825285818151815260200191508051906020019080838360005b83811015612260578082015181840152602081019050612245565b50505050905090810190601f16801561228d5780820380516001836020036101000a031916815260200191505b509950505050505050505050600060405180830381600087803b1580156122b357600080fd5b505af11580156122c7573d6000803e3d6000fd5b50505050600460009054906101000a900473ffffffffffffffffffffffffffffffffffffffff1673ffffffffffffffffffffffffffffffffffffffff1663f6b47e708a8a6040518363ffffffff167c01000000000000000000000000000000000000000000000000000000000281526004018080602001828103825284848281815260200192508082843782019150509350505050600060405180830381600087803b15801561237657600080fd5b505af115801561238a573d6000803e3d6000fd5b505050507fbbb8f4308720982b1cf7ec178a2f4d71f3d79e833c0be548274837bb94c546748b60008b8b8a8c8b604051808873ffffffffffffffffffffffffffffffffffffffff1673ffffffffffffffffffffffffffffffffffffffff16815260200187815260200180602001806020018573ffffffffffffffffffffffffffffffffffffffff1673ffffffffffffffffffffffffffffffffffffffff1681526020018060200184810384528989828181526020019250808284378201915050848103835287818151815260200191508051906020019080838360005b83811015612482578082015181840152602081019050612467565b50505050905090810190601f1680156124af5780820380516001836020036101000a031916815260200191505b50848103825285818151815260200191508051906020019080838360005b838110156124e85780820151818401526020810190506124cd565b50505050905090810190601f1680156125155780820380516001836020036101000a031916815260200191505b509a505050505050505050505060405180910390a15b5050505050505050505050565b600260009054906101000a900473ffffffffffffffffffffffffffffffffffffffff1681565b60003373ffffffffffffffffffffffffffffffffffffffff166000809054906101000a900473ffffffffffffffffffffffffffffffffffffffff1673ffffffffffffffffffffffffffffffffffffffff161415156125bb57600080fd5b81600560006101000a81548173ffffffffffffffffffffffffffffffffffffffff021916908373ffffffffffffffffffffffffffffffffffffffff16021790555060019050919050565b60015481565b3373ffffffffffffffffffffffffffffffffffffffff166000809054906101000a900473ffffffffffffffffffffffffffffffffffffffff1673ffffffffffffffffffffffffffffffffffffffff1614151561266657600080fd5b600073ffffffffffffffffffffffffffffffffffffffff168173ffffffffffffffffffffffffffffffffffffffff16141515156126a257600080fd5b8073ffffffffffffffffffffffffffffffffffffffff166000809054906101000a900473ffffffffffffffffffffffffffffffffffffffff1673ffffffffffffffffffffffffffffffffffffffff167f8be0079c531659141344cd1fd0a4f28419497f9722a3daafe3b4186f6b6457e060405160405180910390a3806000806101000a81548173ffffffffffffffffffffffffffffffffffffffff021916908373ffffffffffffffffffffffffffffffffffffffff16021790555050565b60003373ffffffffffffffffffffffffffffffffffffffff166000809054906101000a900473ffffffffffffffffffffffffffffffffffffffff1673ffffffffffffffffffffffffffffffffffffffff161415156127bd57600080fd5b81600260006101000a81548173ffffffffffffffffffffffffffffffffffffffff021916908373ffffffffffffffffffffffffffffffffffffffff16021790555060019050919050565b60008083141561281a5760009050612839565b818302905081838281151561282b57fe5b0414151561283557fe5b8090505b92915050565b6000818301905082811015151561285257fe5b80905092915050565b600082821115151561286957fe5b818303905092915050565b6000818381151561288157fe5b049050929150505600a165627a7a72305820cf03339c2902503648575a779927147bb4c245fa1b5ead1efeda00acbca837d10029",
  "source": "pragma solidity ^0.4.15;\r\n\r\n//pragma experimental ABIEncoderV2;\r\n\r\nimport \"./Ownable.sol\";\r\nimport \"./SafeMath.sol\";\r\nimport \"./playersContract.sol\";\r\nimport \"./countriesContract.sol\";\r\nimport \"./bombCards.sol\";\r\n\r\ncontract attacksContract is Ownable {\r\n\r\n    using SafeMath for uint;\r\n\r\n    uint public baseDamage;\r\n    address public logicAdr;\r\n\r\n    playersContract players;\r\n    countriesContract countries;\r\n    bombCards bombCard;\r\n\r\n    event newOwner(address adr,string team,string country, address victim, string nick,uint subs);\r\n    event attackInflicted(address adr, uint num, string name, string team,address victim, string nick);\r\n\r\n    // BE SURE TO PUT THE RIGHT OWNER BEFORE PRODUCTION\r\n    modifier onlyOwner {\r\n        require(owner == msg.sender);\r\n        _;\r\n    }\r\n\r\n    modifier onlyLogic {\r\n        require(msg.sender == logicAdr);\r\n        _;\r\n    }\r\n\r\n    modifier notOwnedYet(address adr, string name) {\r\n        require(countries.getOwner(name) != adr);\r\n        _;\r\n    }\r\n\r\n    modifier legitAttack(address adr, string name) {\r\n        require(countries.getOwner(name) != adr && players.getExistence(adr) == true);\r\n        _;\r\n    }\r\n\r\n    constructor(address adr) public {\r\n        logicAdr = 0x0;\r\n        owner = adr;//msg.sender;//0xBB9CAE0071054774d47B3299EFb1E6e3ef1153d1;\r\n        players = playersContract(0x0);\r\n        countries = countriesContract(0x0);\r\n        bombCard = bombCards(0x0);\r\n    }\r\n\r\n//-------------------Init Functions ----------------------------------------------------//\r\n\r\n    function setPlayersContract(address adr) onlyOwner external returns (bool) {\r\n        players = playersContract(adr);\r\n        return true;\r\n    }\r\n\r\n    function setCountriesContract(address adr) onlyOwner external returns (bool) {\r\n        countries = countriesContract(adr);\r\n        return true;\r\n    }\r\n\r\n    function setLogicAddress(address adr) onlyOwner external returns (bool) {\r\n        logicAdr = adr;\r\n        return true;\r\n    }\r\n\r\n    function setBombCardContract(address adr) onlyOwner external returns (bool) {\r\n        bombCard = bombCards(adr);\r\n        return true;\r\n    }\r\n\r\n//-------------------Internal functions-------------------------------------------------//\r\n\r\n    function updatePlayerInfos(address adr, string to, uint expts) internal {\r\n        address oldOwner = countries.getOwner(to);\r\n        players.updatePossessions(adr, oldOwner, true);\r\n        players.addExpPts(adr, expts);\r\n        countries.changeOwnership(to,adr,0,0);\r\n    }\r\n\r\n    function calculateAttackNumbers(address adr, string to, uint quantity, address attackedPlayer) internal view returns (bool) {\r\n        uint dmg = players.getArmyDamage(adr);\r\n        require(quantity <= players.getArmy(adr) );\r\n        uint attackNum = quantity.mul(players.getLevel(adr).mul(dmg));\r\n        uint dfns = players.getArmyDamage(attackedPlayer);\r\n        uint defense = countries.getArmy(to).mul(players.getLevel(attackedPlayer).mul(dfns));\r\n        if(attackNum > defense) return true;\r\n        else return false;\r\n    }\r\n\r\n//--------------------State changing functions------------------------------------------//\r\n\r\n    //ATTACKS\r\n    function attack(address adr, uint quantity, string to) onlyLogic external {\r\n        address attackedPlayer = countries.getOwner(to);\r\n        string memory team = players.getTeam(adr);\r\n        string memory nick = players.getNickname(adr);\r\n        uint powerB = countries.getArmy(to).mul(players.getLevelDefense(attackedPlayer));\r\n        uint powerA = quantity.mul(players.getLevelPower(adr));\r\n        uint finalDamage = quantity.add(players.getLevel(adr)).mul(players.getArmyDamage(adr));\r\n        if(powerA > powerB) {\r\n            //old owner defeated its armies to 0 and IF conquered place subs in the state else substract quantity-remainings\r\n            uint subs = (powerA.sub(powerB)).div(players.getLevelPower(adr));\r\n\r\n            if(countries.attack(adr,team,finalDamage,to,subs,nick) != true) {\r\n                players.changeArmy(adr,quantity.sub(subs),true);\r\n                players.addExpPts(adr,2);\r\n            } else {\r\n                players.addExpPts(adr,5);\r\n                players.changeArmy(adr,quantity,true);\r\n                players.updatePossessions(adr,attackedPlayer,true);\r\n                emit newOwner(adr,team,to,attackedPlayer,nick,subs);\r\n            }\r\n        } else {\r\n            players.changeArmy(adr,quantity,true);\r\n            countries.changeArmy(attackedPlayer,(powerB.sub(powerA)).div(players.getLevelDefense(attackedPlayer)),to,false,nick,true);\r\n            countries.setTimer(to);\r\n            emit attackInflicted(adr,0,to,team,attackedPlayer,nick);\r\n        }\r\n    }\r\n\r\n    //bomb cards\r\n    function applyBombCard(address adr, uint index, string name) onlyLogic external returns(bool) {\r\n        require(countries.getBlockLeft(name) == 0 && bombCard.applyBombCard(adr,index) == true);\r\n        string memory team = players.getTeam(adr);\r\n        string memory nick = players.getNickname(adr);\r\n        if(countries.applyBombCard(adr,index,name, team, nick) == true) return true;\r\n        else return false;\r\n    }\r\n\r\n}\r\n",
  "sourcePath": "C:\\Users\\mauri\\Desktop\\CryskLoom\\contracts\\attacksContract.sol",
  "compiler": {
    "name": "solc",
    "version": "0.4.24+commit.e67f0147.Emscripten.clang"
  },
  "schemaVersion": "2.0.1",
  "updatedAt": "2018-11-04T14:58:24.525Z"
}