{
  "contractName": "bombCards",
  "abi": [
    {
      "constant": true,
      "inputs": [],
      "name": "owner",
      "outputs": [
        {
          "name": "",
          "type": "address"
        }
      ],
      "payable": false,
      "stateMutability": "view",
      "type": "function"
    },
    {
      "constant": false,
      "inputs": [
        {
          "name": "newOwner",
          "type": "address"
        }
      ],
      "name": "transferOwnership",
      "outputs": [],
      "payable": false,
      "stateMutability": "nonpayable",
      "type": "function"
    },
    {
      "inputs": [
        {
          "name": "adr",
          "type": "address"
        }
      ],
      "payable": false,
      "stateMutability": "nonpayable",
      "type": "constructor"
    },
    {
      "anonymous": false,
      "inputs": [
        {
          "indexed": false,
          "name": "adr",
          "type": "address"
        },
        {
          "indexed": false,
          "name": "index",
          "type": "uint256"
        },
        {
          "indexed": false,
          "name": "intIndex",
          "type": "uint256"
        }
      ],
      "name": "buycard",
      "type": "event"
    },
    {
      "anonymous": false,
      "inputs": [
        {
          "indexed": false,
          "name": "index",
          "type": "uint256"
        }
      ],
      "name": "cardAvailable",
      "type": "event"
    },
    {
      "anonymous": false,
      "inputs": [
        {
          "indexed": true,
          "name": "previousOwner",
          "type": "address"
        },
        {
          "indexed": true,
          "name": "newOwner",
          "type": "address"
        }
      ],
      "name": "OwnershipTransferred",
      "type": "event"
    },
    {
      "constant": false,
      "inputs": [
        {
          "name": "adr",
          "type": "address"
        }
      ],
      "name": "setMarketPlaceContract",
      "outputs": [
        {
          "name": "",
          "type": "bool"
        }
      ],
      "payable": false,
      "stateMutability": "nonpayable",
      "type": "function"
    },
    {
      "constant": false,
      "inputs": [
        {
          "name": "adr",
          "type": "address"
        }
      ],
      "name": "setattacksContract",
      "outputs": [
        {
          "name": "",
          "type": "bool"
        }
      ],
      "payable": false,
      "stateMutability": "nonpayable",
      "type": "function"
    },
    {
      "constant": true,
      "inputs": [
        {
          "name": "adr",
          "type": "address"
        }
      ],
      "name": "getUserCards",
      "outputs": [
        {
          "name": "",
          "type": "uint256[3]"
        }
      ],
      "payable": false,
      "stateMutability": "view",
      "type": "function"
    },
    {
      "constant": true,
      "inputs": [
        {
          "name": "index",
          "type": "uint256"
        }
      ],
      "name": "getAvailability",
      "outputs": [
        {
          "name": "",
          "type": "uint256"
        }
      ],
      "payable": false,
      "stateMutability": "view",
      "type": "function"
    },
    {
      "constant": true,
      "inputs": [
        {
          "name": "index",
          "type": "uint256"
        }
      ],
      "name": "getPrice",
      "outputs": [
        {
          "name": "",
          "type": "uint256"
        }
      ],
      "payable": false,
      "stateMutability": "view",
      "type": "function"
    },
    {
      "constant": true,
      "inputs": [
        {
          "name": "adr",
          "type": "address"
        },
        {
          "name": "index",
          "type": "uint256"
        }
      ],
      "name": "checkOwnership",
      "outputs": [
        {
          "name": "",
          "type": "bool"
        }
      ],
      "payable": false,
      "stateMutability": "view",
      "type": "function"
    },
    {
      "constant": false,
      "inputs": [
        {
          "name": "index",
          "type": "uint256"
        },
        {
          "name": "adr",
          "type": "address"
        },
        {
          "name": "value",
          "type": "uint256"
        }
      ],
      "name": "buyCard",
      "outputs": [],
      "payable": false,
      "stateMutability": "nonpayable",
      "type": "function"
    },
    {
      "constant": false,
      "inputs": [
        {
          "name": "adr",
          "type": "address"
        },
        {
          "name": "index",
          "type": "uint256"
        }
      ],
      "name": "applyBombCard",
      "outputs": [
        {
          "name": "",
          "type": "bool"
        }
      ],
      "payable": false,
      "stateMutability": "nonpayable",
      "type": "function"
    }
  ],
  "bytecode": "0x60806040523480156200001157600080fd5b5060405160208062002442833981018060405281019080805190602001909291905050506200003f620006f3565b336000806101000a81548173ffffffffffffffffffffffffffffffffffffffff021916908373ffffffffffffffffffffffffffffffffffffffff1602179055506000603260006101000a81548173ffffffffffffffffffffffffffffffffffffffff021916908373ffffffffffffffffffffffffffffffffffffffff1602179055506000603360006101000a81548173ffffffffffffffffffffffffffffffffffffffff021916908373ffffffffffffffffffffffffffffffffffffffff160217905550816000806101000a81548173ffffffffffffffffffffffffffffffffffffffff021916908373ffffffffffffffffffffffffffffffffffffffff16021790555060a060405190810160405280661c6bf5263400008152602001600081526020016019815260200160008152602001600073ffffffffffffffffffffffffffffffffffffffff1681525090508060016000600381101515620001a057fe5b600502016000820151816000015560208201518160010155604082015181600201556060820151816003015560808201518160040160006101000a81548173ffffffffffffffffffffffffffffffffffffffff021916908373ffffffffffffffffffffffffffffffffffffffff160217905550905050806001806003811015156200022757fe5b600502016000820151816000015560208201518160010155604082015181600201556060820151816003015560808201518160040160006101000a81548173ffffffffffffffffffffffffffffffffffffffff021916908373ffffffffffffffffffffffffffffffffffffffff1602179055509050508060016002600381101515620002af57fe5b600502016000820151816000015560208201518160010155604082015181600201556060820151816003015560808201518160040160006101000a81548173ffffffffffffffffffffffffffffffffffffffff021916908373ffffffffffffffffffffffffffffffffffffffff16021790555090505060a060405190810160405280662386f26fc100008152602001601981526020016032815260200160008152602001600073ffffffffffffffffffffffffffffffffffffffff16815250905080601060006003811015156200038257fe5b600502016000820151816000015560208201518160010155604082015181600201556060820151816003015560808201518160040160006101000a81548173ffffffffffffffffffffffffffffffffffffffff021916908373ffffffffffffffffffffffffffffffffffffffff16021790555090505080601060016003811015156200040a57fe5b600502016000820151816000015560208201518160010155604082015181600201556060820151816003015560808201518160040160006101000a81548173ffffffffffffffffffffffffffffffffffffffff021916908373ffffffffffffffffffffffffffffffffffffffff16021790555090505080601060026003811015156200049257fe5b600502016000820151816000015560208201518160010155604082015181600201556060820151816003015560808201518160040160006101000a81548173ffffffffffffffffffffffffffffffffffffffff021916908373ffffffffffffffffffffffffffffffffffffffff16021790555090505060a06040519081016040528066354a6ba7a180008152602001603281526020016063815260200160008152602001600073ffffffffffffffffffffffffffffffffffffffff16815250905080601f60006003811015156200056557fe5b600502016000820151816000015560208201518160010155604082015181600201556060820151816003015560808201518160040160006101000a81548173ffffffffffffffffffffffffffffffffffffffff021916908373ffffffffffffffffffffffffffffffffffffffff16021790555090505080601f6001600381101515620005ed57fe5b600502016000820151816000015560208201518160010155604082015181600201556060820151816003015560808201518160040160006101000a81548173ffffffffffffffffffffffffffffffffffffffff021916908373ffffffffffffffffffffffffffffffffffffffff16021790555090505080601f60026003811015156200067557fe5b600502016000820151816000015560208201518160010155604082015181600201556060820151816003015560808201518160040160006101000a81548173ffffffffffffffffffffffffffffffffffffffff021916908373ffffffffffffffffffffffffffffffffffffffff160217905550905050505062000739565b60a06040519081016040528060008152602001600081526020016000815260200160008152602001600073ffffffffffffffffffffffffffffffffffffffff1681525090565b611cf980620007496000396000f3006080604052600436106100a4576000357c0100000000000000000000000000000000000000000000000000000000900463ffffffff1680631906a281146100a95780635b445df7146101045780637ee82e851461015b57806388d9f40d146101c05780638da5cb5b1461023f5780638fd649a7146102965780639e4d3fbf146102fb578063cd6a8eca14610356578063e757223014610397578063f2fde38b146103d8575b600080fd5b3480156100b557600080fd5b506100ea600480360381019080803573ffffffffffffffffffffffffffffffffffffffff16906020019092919050505061041b565b604051808215151515815260200191505060405180910390f35b34801561011057600080fd5b5061015960048036038101908080359060200190929190803573ffffffffffffffffffffffffffffffffffffffff169060200190929190803590602001909291905050506104c2565b005b34801561016757600080fd5b506101a6600480360381019080803573ffffffffffffffffffffffffffffffffffffffff16906020019092919080359060200190929190505050610a3a565b604051808215151515815260200191505060405180910390f35b3480156101cc57600080fd5b50610201600480360381019080803573ffffffffffffffffffffffffffffffffffffffff169060200190929190505050610e02565b6040518082600360200280838360005b8381101561022c578082015181840152602081019050610211565b5050505090500191505060405180910390f35b34801561024b57600080fd5b50610254610eea565b604051808273ffffffffffffffffffffffffffffffffffffffff1673ffffffffffffffffffffffffffffffffffffffff16815260200191505060405180910390f35b3480156102a257600080fd5b506102e1600480360381019080803573ffffffffffffffffffffffffffffffffffffffff16906020019092919080359060200190929190505050610f0f565b604051808215151515815260200191505060405180910390f35b34801561030757600080fd5b5061033c600480360381019080803573ffffffffffffffffffffffffffffffffffffffff1690602001909291905050506110ae565b604051808215151515815260200191505060405180910390f35b34801561036257600080fd5b5061038160048036038101908080359060200190929190505050611155565b6040518082815260200191505060405180910390f35b3480156103a357600080fd5b506103c260048036038101908080359060200190929190505050611336565b6040518082815260200191505060405180910390f35b3480156103e457600080fd5b50610419600480360381019080803573ffffffffffffffffffffffffffffffffffffffff1690602001909291905050506113b6565b005b60003373ffffffffffffffffffffffffffffffffffffffff166000809054906101000a900473ffffffffffffffffffffffffffffffffffffffff1673ffffffffffffffffffffffffffffffffffffffff1614151561047857600080fd5b81603360006101000a81548173ffffffffffffffffffffffffffffffffffffffff021916908373ffffffffffffffffffffffffffffffffffffffff16021790555060019050919050565b6000603260009054906101000a900473ffffffffffffffffffffffffffffffffffffffff1673ffffffffffffffffffffffffffffffffffffffff163373ffffffffffffffffffffffffffffffffffffffff16148061056d5750603360009054906101000a900473ffffffffffffffffffffffffffffffffffffffff1673ffffffffffffffffffffffffffffffffffffffff163373ffffffffffffffffffffffffffffffffffffffff16145b151561057857600080fd5b6105818461150b565b90506003602e60008573ffffffffffffffffffffffffffffffffffffffff1673ffffffffffffffffffffffffffffffffffffffff168152602001908152602001600020541080156105d25750600381105b15156105dd57600080fd5b6106306001602e60008673ffffffffffffffffffffffffffffffffffffffff1673ffffffffffffffffffffffffffffffffffffffff1681526020019081526020016000205461193190919063ffffffff16565b602e60008573ffffffffffffffffffffffffffffffffffffffff1673ffffffffffffffffffffffffffffffffffffffff16815260200190815260200160002081905550600184141561078d5760018160038110151561068b57fe5b600502016000015482101515156106a157600080fd5b6106f46001602f60008673ffffffffffffffffffffffffffffffffffffffff1673ffffffffffffffffffffffffffffffffffffffff1681526020019081526020016000205461193190919063ffffffff16565b602f60008573ffffffffffffffffffffffffffffffffffffffff1673ffffffffffffffffffffffffffffffffffffffff168152602001908152602001600020819055508260018260038110151561074757fe5b6005020160040160006101000a81548173ffffffffffffffffffffffffffffffffffffffff021916908373ffffffffffffffffffffffffffffffffffffffff1602179055505b60028414156108a7576010816003811015156107a557fe5b600502016000015482101515156107bb57600080fd5b61080e6001603060008673ffffffffffffffffffffffffffffffffffffffff1673ffffffffffffffffffffffffffffffffffffffff1681526020019081526020016000205461193190919063ffffffff16565b603060008573ffffffffffffffffffffffffffffffffffffffff1673ffffffffffffffffffffffffffffffffffffffff168152602001908152602001600020819055508260108260038110151561086157fe5b6005020160040160006101000a81548173ffffffffffffffffffffffffffffffffffffffff021916908373ffffffffffffffffffffffffffffffffffffffff1602179055505b60038414156109c157601f816003811015156108bf57fe5b600502016000015482101515156108d557600080fd5b6109286001603160008673ffffffffffffffffffffffffffffffffffffffff1673ffffffffffffffffffffffffffffffffffffffff1681526020019081526020016000205461193190919063ffffffff16565b603160008573ffffffffffffffffffffffffffffffffffffffff1673ffffffffffffffffffffffffffffffffffffffff1681526020019081526020016000208190555082601f8260038110151561097b57fe5b6005020160040160006101000a81548173ffffffffffffffffffffffffffffffffffffffff021916908373ffffffffffffffffffffffffffffffffffffffff1602179055505b7fa968b9c9fd3da4dbcf5b6f2f71f0c33540c7ac5ec8933aed34b058e031610f05838583604051808473ffffffffffffffffffffffffffffffffffffffff1673ffffffffffffffffffffffffffffffffffffffff168152602001838152602001828152602001935050505060405180910390a150505050565b6000603260009054906101000a900473ffffffffffffffffffffffffffffffffffffffff1673ffffffffffffffffffffffffffffffffffffffff163373ffffffffffffffffffffffffffffffffffffffff161480610ae55750603360009054906101000a900473ffffffffffffffffffffffffffffffffffffffff1673ffffffffffffffffffffffffffffffffffffffff163373ffffffffffffffffffffffffffffffffffffffff16145b1515610af057600080fd5b60011515610afe8484610f0f565b1515141515610b0c57600080fd5b600073ffffffffffffffffffffffffffffffffffffffff16610b2e848461194d565b73ffffffffffffffffffffffffffffffffffffffff161415610b82577f14a42c01cb91d5a0cf63548798e7d21109f9b08c9074bacd399d9655e32b52a0826040518082815260200191505060405180910390a15b610bd56001602e60008673ffffffffffffffffffffffffffffffffffffffff1673ffffffffffffffffffffffffffffffffffffffff16815260200190815260200160002054611c9190919063ffffffff16565b602e60008573ffffffffffffffffffffffffffffffffffffffff1673ffffffffffffffffffffffffffffffffffffffff168152602001908152602001600020819055506001821415610cb857610c746001602f60008673ffffffffffffffffffffffffffffffffffffffff1673ffffffffffffffffffffffffffffffffffffffff16815260200190815260200160002054611c9190919063ffffffff16565b602f60008573ffffffffffffffffffffffffffffffffffffffff1673ffffffffffffffffffffffffffffffffffffffff168152602001908152602001600020819055505b6002821415610d5857610d146001603060008673ffffffffffffffffffffffffffffffffffffffff1673ffffffffffffffffffffffffffffffffffffffff16815260200190815260200160002054611c9190919063ffffffff16565b603060008573ffffffffffffffffffffffffffffffffffffffff1673ffffffffffffffffffffffffffffffffffffffff168152602001908152602001600020819055505b6003821415610df857610db46001603160008673ffffffffffffffffffffffffffffffffffffffff1673ffffffffffffffffffffffffffffffffffffffff16815260200190815260200160002054611c9190919063ffffffff16565b603160008573ffffffffffffffffffffffffffffffffffffffff1673ffffffffffffffffffffffffffffffffffffffff168152602001908152602001600020819055505b6001905092915050565b610e0a611caa565b606060405190810160405280602f60008573ffffffffffffffffffffffffffffffffffffffff1673ffffffffffffffffffffffffffffffffffffffff168152602001908152602001600020548152602001603060008573ffffffffffffffffffffffffffffffffffffffff1673ffffffffffffffffffffffffffffffffffffffff168152602001908152602001600020548152602001603160008573ffffffffffffffffffffffffffffffffffffffff1673ffffffffffffffffffffffffffffffffffffffff168152602001908152602001600020548152509050919050565b6000809054906101000a900473ffffffffffffffffffffffffffffffffffffffff1681565b6000806000809150600090505b60038110156110a357600184148015610f9657508473ffffffffffffffffffffffffffffffffffffffff16600182600381101515610f5657fe5b6005020160040160009054906101000a900473ffffffffffffffffffffffffffffffffffffffff1673ffffffffffffffffffffffffffffffffffffffff16145b15610fa057600191505b60028414801561101157508473ffffffffffffffffffffffffffffffffffffffff16601082600381101515610fd157fe5b6005020160040160009054906101000a900473ffffffffffffffffffffffffffffffffffffffff1673ffffffffffffffffffffffffffffffffffffffff16145b1561101b57600191505b60038414801561108c57508473ffffffffffffffffffffffffffffffffffffffff16601f8260038110151561104c57fe5b6005020160040160009054906101000a900473ffffffffffffffffffffffffffffffffffffffff1673ffffffffffffffffffffffffffffffffffffffff16145b1561109657600191505b8080600101915050610f1c565b819250505092915050565b60003373ffffffffffffffffffffffffffffffffffffffff166000809054906101000a900473ffffffffffffffffffffffffffffffffffffffff1673ffffffffffffffffffffffffffffffffffffffff1614151561110b57600080fd5b81603260006101000a81548173ffffffffffffffffffffffffffffffffffffffff021916908373ffffffffffffffffffffffffffffffffffffffff16021790555060019050919050565b6000806000809150600090505b600381101561132c576001841480156111dd5750600073ffffffffffffffffffffffffffffffffffffffff1660018260038110151561119d57fe5b6005020160040160009054906101000a900473ffffffffffffffffffffffffffffffffffffffff1673ffffffffffffffffffffffffffffffffffffffff16145b156111fd576111f660018361193190919063ffffffff16565b915061131f565b60028414801561126f5750600073ffffffffffffffffffffffffffffffffffffffff1660108260038110151561122f57fe5b6005020160040160009054906101000a900473ffffffffffffffffffffffffffffffffffffffff1673ffffffffffffffffffffffffffffffffffffffff16145b1561128f5761128860018361193190919063ffffffff16565b915061131e565b6003841480156113015750600073ffffffffffffffffffffffffffffffffffffffff16601f826003811015156112c157fe5b6005020160040160009054906101000a900473ffffffffffffffffffffffffffffffffffffffff1673ffffffffffffffffffffffffffffffffffffffff16145b1561131d5761131a60018361193190919063ffffffff16565b91505b5b5b8080600101915050611162565b8192505050919050565b60006001821415611360576001600060038110151561135157fe5b600502016000015490506113b1565b6002821415611388576010600060038110151561137957fe5b600502016000015490506113b1565b60038214156113b057601f60006003811015156113a157fe5b600502016000015490506113b1565b5b919050565b3373ffffffffffffffffffffffffffffffffffffffff166000809054906101000a900473ffffffffffffffffffffffffffffffffffffffff1673ffffffffffffffffffffffffffffffffffffffff1614151561141157600080fd5b600073ffffffffffffffffffffffffffffffffffffffff168173ffffffffffffffffffffffffffffffffffffffff161415151561144d57600080fd5b8073ffffffffffffffffffffffffffffffffffffffff166000809054906101000a900473ffffffffffffffffffffffffffffffffffffffff1673ffffffffffffffffffffffffffffffffffffffff167f8be0079c531659141344cd1fd0a4f28419497f9722a3daafe3b4186f6b6457e060405160405180910390a3806000806101000a81548173ffffffffffffffffffffffffffffffffffffffff021916908373ffffffffffffffffffffffffffffffffffffffff16021790555050565b60008060039050600183141561166e57600073ffffffffffffffffffffffffffffffffffffffff166001600060038110151561154357fe5b6005020160040160009054906101000a900473ffffffffffffffffffffffffffffffffffffffff1673ffffffffffffffffffffffffffffffffffffffff16141561158c57600090505b600073ffffffffffffffffffffffffffffffffffffffff166001806003811015156115b357fe5b6005020160040160009054906101000a900473ffffffffffffffffffffffffffffffffffffffff1673ffffffffffffffffffffffffffffffffffffffff1614156115fc57600190505b600073ffffffffffffffffffffffffffffffffffffffff166001600260038110151561162457fe5b6005020160040160009054906101000a900473ffffffffffffffffffffffffffffffffffffffff1673ffffffffffffffffffffffffffffffffffffffff16141561166d57600290505b5b60028314156117cb57600073ffffffffffffffffffffffffffffffffffffffff166010600060038110151561169f57fe5b6005020160040160009054906101000a900473ffffffffffffffffffffffffffffffffffffffff1673ffffffffffffffffffffffffffffffffffffffff1614156116e857600090505b600073ffffffffffffffffffffffffffffffffffffffff166010600160038110151561171057fe5b6005020160040160009054906101000a900473ffffffffffffffffffffffffffffffffffffffff1673ffffffffffffffffffffffffffffffffffffffff16141561175957600190505b600073ffffffffffffffffffffffffffffffffffffffff166010600260038110151561178157fe5b6005020160040160009054906101000a900473ffffffffffffffffffffffffffffffffffffffff1673ffffffffffffffffffffffffffffffffffffffff1614156117ca57600290505b5b600383141561192857600073ffffffffffffffffffffffffffffffffffffffff16601f60006003811015156117fc57fe5b6005020160040160009054906101000a900473ffffffffffffffffffffffffffffffffffffffff1673ffffffffffffffffffffffffffffffffffffffff16141561184557600090505b600073ffffffffffffffffffffffffffffffffffffffff16601f600160038110151561186d57fe5b6005020160040160009054906101000a900473ffffffffffffffffffffffffffffffffffffffff1673ffffffffffffffffffffffffffffffffffffffff1614156118b657600190505b600073ffffffffffffffffffffffffffffffffffffffff16601f60026003811015156118de57fe5b6005020160040160009054906101000a900473ffffffffffffffffffffffffffffffffffffffff1673ffffffffffffffffffffffffffffffffffffffff16141561192757600290505b5b80915050919050565b6000818301905082811015151561194457fe5b80905092915050565b600080600090505b6003811015611c89576001831480156119cf57508373ffffffffffffffffffffffffffffffffffffffff1660018260038110151561198f57fe5b6005020160040160009054906101000a900473ffffffffffffffffffffffffffffffffffffffff1673ffffffffffffffffffffffffffffffffffffffff16145b15611a685760006001826003811015156119e557fe5b6005020160040160006101000a81548173ffffffffffffffffffffffffffffffffffffffff021916908373ffffffffffffffffffffffffffffffffffffffff160217905550600181600381101515611a3957fe5b6005020160040160009054906101000a900473ffffffffffffffffffffffffffffffffffffffff169150611c8a565b600283148015611ad957508373ffffffffffffffffffffffffffffffffffffffff16601082600381101515611a9957fe5b6005020160040160009054906101000a900473ffffffffffffffffffffffffffffffffffffffff1673ffffffffffffffffffffffffffffffffffffffff16145b15611b72576000601082600381101515611aef57fe5b6005020160040160006101000a81548173ffffffffffffffffffffffffffffffffffffffff021916908373ffffffffffffffffffffffffffffffffffffffff160217905550601081600381101515611b4357fe5b6005020160040160009054906101000a900473ffffffffffffffffffffffffffffffffffffffff169150611c8a565b600383148015611be357508373ffffffffffffffffffffffffffffffffffffffff16601f82600381101515611ba357fe5b6005020160040160009054906101000a900473ffffffffffffffffffffffffffffffffffffffff1673ffffffffffffffffffffffffffffffffffffffff16145b15611c7c576000601f82600381101515611bf957fe5b6005020160040160006101000a81548173ffffffffffffffffffffffffffffffffffffffff021916908373ffffffffffffffffffffffffffffffffffffffff160217905550601f81600381101515611c4d57fe5b6005020160040160009054906101000a900473ffffffffffffffffffffffffffffffffffffffff169150611c8a565b8080600101915050611955565b5b5092915050565b6000828211151515611c9f57fe5b818303905092915050565b6060604051908101604052806003906020820280388339808201915050905050905600a165627a7a7230582037d931dd15b467b29b9f03ff2ef32789b45623d9336381aa35987421c7ee0b280029",
  "source": "pragma solidity ^0.4.15;\r\n\r\nimport \"./SafeMath.sol\";\r\nimport \"./Ownable.sol\";\r\n\r\ncontract bombCards is Ownable {\r\n\r\n    using SafeMath for uint;\r\n\r\n    struct card {\r\n        uint price;\r\n        uint armyDamage; //% \r\n        uint lifepointsDamage; //%\r\n        uint delay;\r\n        address owner;\r\n    }\r\n\r\n    card[3] firstCards;\r\n    card[3] secondCards;\r\n    card[3] thirdCards;\r\n\r\n    mapping(address => uint) cardsOwned;\r\n    mapping(address => uint) firstCardsOwned;\r\n    mapping(address => uint) secondCardsOwned;\r\n    mapping(address => uint) thirdCardsOwned;\r\n\r\n    address marketplaceContract;\r\n    address attacksContract;\r\n\r\n    modifier validAddress  {\r\n        require(msg.sender == marketplaceContract || msg.sender == attacksContract);\r\n        _;\r\n    }\r\n\r\n    modifier onlyOwner {\r\n        require(owner == msg.sender);\r\n        _;\r\n    }\r\n\r\n    event buycard(address adr,uint index, uint intIndex);\r\n    event cardAvailable(uint index);\r\n\r\n    constructor (address adr) public {\r\n\r\n        marketplaceContract = 0x0;\r\n        attacksContract = 0x0;\r\n        owner = adr;\r\n\r\n        card memory tmpCard = card(8000000000000000,0,25,0,0x0);\r\n        firstCards[0] = tmpCard;\r\n        firstCards[1] = tmpCard;\r\n        firstCards[2] = tmpCard;\r\n\r\n        tmpCard = card(10000000000000000,25,50,0,0x0);\r\n        secondCards[0] = tmpCard;\r\n        secondCards[1] = tmpCard;\r\n        secondCards[2] = tmpCard;\r\n\r\n        tmpCard = card(15000000000000000,50,99,0,0x0);\r\n        thirdCards[0] = tmpCard;\r\n        thirdCards[1] = tmpCard;\r\n        thirdCards[2] = tmpCard;\r\n\r\n    }\r\n\r\n    function setMarketPlaceContract(address adr) onlyOwner external returns(bool) {\r\n        marketplaceContract = adr;\r\n        return true;\r\n    }\r\n\r\n    function setattacksContract(address adr) onlyOwner external returns(bool) {\r\n        attacksContract = adr;\r\n        return true;\r\n    }\r\n\r\n    //--------------------- Getters -------------------------------------------------------//\r\n\r\n    //This return an array of values of owned cards by address for every index\r\n    function getUserCards(address adr) external view returns(uint[3]) {\r\n        return [firstCardsOwned[adr], secondCardsOwned[adr], thirdCardsOwned[adr]];\r\n    }\r\n\r\n    function getFreeIndex(uint cardNum) internal view returns(uint) {\r\n        uint index = 3;\r\n        if(cardNum == 1) {\r\n            if(firstCards[0].owner == 0x0000000000000000000000000000000000000000) index = 0;\r\n            if(firstCards[1].owner == 0x0000000000000000000000000000000000000000) index = 1;\r\n            if(firstCards[2].owner == 0x0000000000000000000000000000000000000000) index = 2;\r\n        }\r\n        if(cardNum == 2) {\r\n            if(secondCards[0].owner == 0x0000000000000000000000000000000000000000) index = 0;\r\n            if(secondCards[1].owner == 0x0000000000000000000000000000000000000000) index = 1;\r\n            if(secondCards[2].owner == 0x0000000000000000000000000000000000000000) index = 2;\r\n        }\r\n        if(cardNum == 3) {\r\n            if(thirdCards[0].owner == 0x0000000000000000000000000000000000000000) index = 0;\r\n            if(thirdCards[1].owner == 0x0000000000000000000000000000000000000000) index = 1;\r\n            if(thirdCards[2].owner == 0x0000000000000000000000000000000000000000) index = 2;\r\n        }\r\n        return index;\r\n    }\r\n\r\n    //This return the first free  it finds (so also the number of available cards for that index);\r\n    function getAvailability(uint index) public view returns(uint) {\r\n        uint available = 0;\r\n        for(uint i = 0; i<3; i++) {\r\n            if(index == 1 && firstCards[i].owner == 0x0000000000000000000000000000000000000000) available = available.add(1);\r\n            else if(index == 2 && secondCards[i].owner == 0x0000000000000000000000000000000000000000) available = available.add(1);\r\n            else if(index == 3 && thirdCards[i].owner == 0x0000000000000000000000000000000000000000) available = available.add(1);\r\n        }\r\n        return available;\r\n    }\r\n\r\n    function getPrice(uint index) public view returns(uint) {\r\n        if(index == 1) return firstCards[0].price;\r\n        if(index == 2) return secondCards[0].price;\r\n        if(index == 3) return thirdCards[0].price;\r\n    }\r\n\r\n    //--------------------- Internals -------------------------------------------------------//\r\n\r\n    function checkOwnership(address adr, uint index) public view returns(bool) {\r\n        bool exhit = false;\r\n        for(uint i = 0; i<3; i++) {\r\n            if(index == 1 && firstCards[i].owner == adr) exhit = true;\r\n            if(index == 2 && secondCards[i].owner == adr) exhit = true;\r\n            if(index == 3 && thirdCards[i].owner == adr) exhit = true;\r\n        }\r\n        return exhit;\r\n    }\r\n\r\n    //This checks if it has at least one and return true\r\n    function changeOwnership(address adr, uint index) internal returns(address) {\r\n        for(uint i = 0; i<3; i++) {\r\n            if(index == 1 && firstCards[i].owner == adr) {\r\n                firstCards[i].owner = 0x0000000000000000000000000000000000000000;\r\n                return firstCards[i].owner;\r\n            }\r\n            if(index == 2 && secondCards[i].owner == adr) {\r\n                secondCards[i].owner = 0x0000000000000000000000000000000000000000;\r\n                return secondCards[i].owner;\r\n            }\r\n            if(index == 3 && thirdCards[i].owner == adr) {\r\n                thirdCards[i].owner = 0x0000000000000000000000000000000000000000;\r\n                return thirdCards[i].owner;\r\n            }\r\n        }\r\n    }\r\n\r\n    //--------------------- Setters -------------------------------------------------------//\r\n\r\n    //buy\r\n    function buyCard(uint index, address adr, uint value) external validAddress {\r\n        uint tmp = getFreeIndex(index);\r\n        require(cardsOwned[adr] < 3 && tmp < 3);\r\n        cardsOwned[adr] = cardsOwned[adr].add(1);\r\n        if(index == 1) {\r\n            require(value >= firstCards[tmp].price);\r\n            firstCardsOwned[adr] = firstCardsOwned[adr].add(1); \r\n            firstCards[tmp].owner = adr;\r\n        }\r\n        if(index == 2) {\r\n            require(value >= secondCards[tmp].price);\r\n            secondCardsOwned[adr] = secondCardsOwned[adr].add(1);\r\n            secondCards[tmp].owner = adr;\r\n        }\r\n        if(index == 3) {\r\n            require(value >= thirdCards[tmp].price);\r\n            thirdCardsOwned[adr] = thirdCardsOwned[adr].add(1);\r\n            thirdCards[tmp].owner = adr;\r\n        }\r\n\r\n        emit buycard(adr,index,tmp);\r\n    }\r\n\r\n    //apply\r\n    function applyBombCard(address adr, uint index) external validAddress returns(bool) {\r\n        require(checkOwnership(adr, index) == true);\r\n        if(changeOwnership(adr,index) == 0x0000000000000000000000000000000000000000) emit cardAvailable(index);\r\n        cardsOwned[adr] = cardsOwned[adr].sub(1);\r\n        if(index == 1) {\r\n            firstCardsOwned[adr] = firstCardsOwned[adr].sub(1); \r\n        }\r\n        if(index == 2) {\r\n            secondCardsOwned[adr] = secondCardsOwned[adr].sub(1);\r\n        }\r\n        if(index == 3) {\r\n            thirdCardsOwned[adr] = thirdCardsOwned[adr].sub(1);\r\n        }\r\n        return true;\r\n    }\r\n    \r\n}",
  "sourcePath": "C:\\Users\\mauri\\Desktop\\CryskLoom\\contracts\\bombCards.sol",
  "compiler": {
    "name": "solc",
    "version": "0.4.24+commit.e67f0147.Emscripten.clang"
  },
  "schemaVersion": "2.0.1",
  "updatedAt": "2018-11-04T14:58:24.541Z"
}