{
  "contractName": "CryskToken",
  "abi": [
    {
      "constant": true,
      "inputs": [],
      "name": "name",
      "outputs": [
        {
          "name": "",
          "type": "string"
        }
      ],
      "payable": false,
      "stateMutability": "view",
      "type": "function"
    },
    {
      "constant": true,
      "inputs": [],
      "name": "decimals",
      "outputs": [
        {
          "name": "",
          "type": "uint8"
        }
      ],
      "payable": false,
      "stateMutability": "view",
      "type": "function"
    },
    {
      "constant": true,
      "inputs": [],
      "name": "_totalSupply",
      "outputs": [
        {
          "name": "",
          "type": "uint256"
        }
      ],
      "payable": false,
      "stateMutability": "view",
      "type": "function"
    },
    {
      "constant": false,
      "inputs": [],
      "name": "acceptOwnership",
      "outputs": [],
      "payable": false,
      "stateMutability": "nonpayable",
      "type": "function"
    },
    {
      "constant": true,
      "inputs": [],
      "name": "owner",
      "outputs": [
        {
          "name": "",
          "type": "address"
        }
      ],
      "payable": false,
      "stateMutability": "view",
      "type": "function"
    },
    {
      "constant": true,
      "inputs": [],
      "name": "symbol",
      "outputs": [
        {
          "name": "",
          "type": "string"
        }
      ],
      "payable": false,
      "stateMutability": "view",
      "type": "function"
    },
    {
      "constant": true,
      "inputs": [
        {
          "name": "a",
          "type": "uint256"
        },
        {
          "name": "b",
          "type": "uint256"
        }
      ],
      "name": "safeSub",
      "outputs": [
        {
          "name": "c",
          "type": "uint256"
        }
      ],
      "payable": false,
      "stateMutability": "pure",
      "type": "function"
    },
    {
      "constant": true,
      "inputs": [
        {
          "name": "a",
          "type": "uint256"
        },
        {
          "name": "b",
          "type": "uint256"
        }
      ],
      "name": "safeDiv",
      "outputs": [
        {
          "name": "c",
          "type": "uint256"
        }
      ],
      "payable": false,
      "stateMutability": "pure",
      "type": "function"
    },
    {
      "constant": true,
      "inputs": [
        {
          "name": "a",
          "type": "uint256"
        },
        {
          "name": "b",
          "type": "uint256"
        }
      ],
      "name": "safeMul",
      "outputs": [
        {
          "name": "c",
          "type": "uint256"
        }
      ],
      "payable": false,
      "stateMutability": "pure",
      "type": "function"
    },
    {
      "constant": true,
      "inputs": [],
      "name": "newOwner",
      "outputs": [
        {
          "name": "",
          "type": "address"
        }
      ],
      "payable": false,
      "stateMutability": "view",
      "type": "function"
    },
    {
      "constant": true,
      "inputs": [
        {
          "name": "a",
          "type": "uint256"
        },
        {
          "name": "b",
          "type": "uint256"
        }
      ],
      "name": "safeAdd",
      "outputs": [
        {
          "name": "c",
          "type": "uint256"
        }
      ],
      "payable": false,
      "stateMutability": "pure",
      "type": "function"
    },
    {
      "constant": false,
      "inputs": [
        {
          "name": "_newOwner",
          "type": "address"
        }
      ],
      "name": "transferOwnership",
      "outputs": [],
      "payable": false,
      "stateMutability": "nonpayable",
      "type": "function"
    },
    {
      "inputs": [],
      "payable": false,
      "stateMutability": "nonpayable",
      "type": "constructor"
    },
    {
      "payable": true,
      "stateMutability": "payable",
      "type": "fallback"
    },
    {
      "anonymous": false,
      "inputs": [
        {
          "indexed": true,
          "name": "_from",
          "type": "address"
        },
        {
          "indexed": true,
          "name": "_to",
          "type": "address"
        }
      ],
      "name": "OwnershipTransferred",
      "type": "event"
    },
    {
      "anonymous": false,
      "inputs": [
        {
          "indexed": true,
          "name": "from",
          "type": "address"
        },
        {
          "indexed": true,
          "name": "to",
          "type": "address"
        },
        {
          "indexed": false,
          "name": "tokens",
          "type": "uint256"
        }
      ],
      "name": "Transfer",
      "type": "event"
    },
    {
      "anonymous": false,
      "inputs": [
        {
          "indexed": true,
          "name": "tokenOwner",
          "type": "address"
        },
        {
          "indexed": true,
          "name": "spender",
          "type": "address"
        },
        {
          "indexed": false,
          "name": "tokens",
          "type": "uint256"
        }
      ],
      "name": "Approval",
      "type": "event"
    },
    {
      "constant": true,
      "inputs": [],
      "name": "totalSupply",
      "outputs": [
        {
          "name": "",
          "type": "uint256"
        }
      ],
      "payable": false,
      "stateMutability": "view",
      "type": "function"
    },
    {
      "constant": true,
      "inputs": [
        {
          "name": "tokenOwner",
          "type": "address"
        }
      ],
      "name": "balanceOf",
      "outputs": [
        {
          "name": "balance",
          "type": "uint256"
        }
      ],
      "payable": false,
      "stateMutability": "view",
      "type": "function"
    },
    {
      "constant": false,
      "inputs": [
        {
          "name": "to",
          "type": "address"
        },
        {
          "name": "tokens",
          "type": "uint256"
        }
      ],
      "name": "transfer",
      "outputs": [
        {
          "name": "success",
          "type": "bool"
        }
      ],
      "payable": false,
      "stateMutability": "nonpayable",
      "type": "function"
    },
    {
      "constant": false,
      "inputs": [
        {
          "name": "spender",
          "type": "address"
        },
        {
          "name": "tokens",
          "type": "uint256"
        }
      ],
      "name": "approve",
      "outputs": [
        {
          "name": "success",
          "type": "bool"
        }
      ],
      "payable": false,
      "stateMutability": "nonpayable",
      "type": "function"
    },
    {
      "constant": false,
      "inputs": [
        {
          "name": "from",
          "type": "address"
        },
        {
          "name": "to",
          "type": "address"
        },
        {
          "name": "tokens",
          "type": "uint256"
        }
      ],
      "name": "transferFrom",
      "outputs": [
        {
          "name": "success",
          "type": "bool"
        }
      ],
      "payable": false,
      "stateMutability": "nonpayable",
      "type": "function"
    },
    {
      "constant": true,
      "inputs": [
        {
          "name": "tokenOwner",
          "type": "address"
        },
        {
          "name": "spender",
          "type": "address"
        }
      ],
      "name": "allowance",
      "outputs": [
        {
          "name": "remaining",
          "type": "uint256"
        }
      ],
      "payable": false,
      "stateMutability": "view",
      "type": "function"
    },
    {
      "constant": false,
      "inputs": [
        {
          "name": "spender",
          "type": "address"
        },
        {
          "name": "tokens",
          "type": "uint256"
        },
        {
          "name": "data",
          "type": "bytes"
        }
      ],
      "name": "approveAndCall",
      "outputs": [
        {
          "name": "success",
          "type": "bool"
        }
      ],
      "payable": false,
      "stateMutability": "nonpayable",
      "type": "function"
    },
    {
      "constant": false,
      "inputs": [
        {
          "name": "tokenAddress",
          "type": "address"
        },
        {
          "name": "tokens",
          "type": "uint256"
        }
      ],
      "name": "transferAnyERC20Token",
      "outputs": [
        {
          "name": "success",
          "type": "bool"
        }
      ],
      "payable": false,
      "stateMutability": "nonpayable",
      "type": "function"
    }
  ],
  "bytecode": "0x60806040523480156200001157600080fd5b50336000806101000a81548173ffffffffffffffffffffffffffffffffffffffff021916908373ffffffffffffffffffffffffffffffffffffffff1602179055506040805190810160405280600481526020017f4352534b00000000000000000000000000000000000000000000000000000000815250600290805190602001906200009f929190620001c4565b506040805190810160405280600b81526020017f437279736b20546f6b656e00000000000000000000000000000000000000000081525060039080519060200190620000ed929190620001c4565b506000600460006101000a81548160ff021916908360ff160217905550629896806005819055506005546006600073c75c2c010ed1dc7f868f09bdab647878b68d578073ffffffffffffffffffffffffffffffffffffffff1681526020019081526020016000208190555073c75c2c010ed1dc7f868f09bdab647878b68d5780600073ffffffffffffffffffffffffffffffffffffffff167fddf252ad1be2c89b69c2b068fc378daa952ba7f163c4a11628f55a4df523b3ef6005546040518082815260200191505060405180910390a362000273565b828054600181600116156101000203166002900490600052602060002090601f016020900481019282601f106200020757805160ff191683800117855562000238565b8280016001018555821562000238579182015b82811115620002375782518255916020019190600101906200021a565b5b5090506200024791906200024b565b5090565b6200027091905b808211156200026c57600081600090555060010162000252565b5090565b90565b61168f80620002836000396000f300608060405260043610610112576000357c0100000000000000000000000000000000000000000000000000000000900463ffffffff16806306fdde0314610117578063095ea7b3146101a757806318160ddd1461020c57806323b872dd14610237578063313ce567146102bc5780633eaaf86b146102ed57806370a082311461031857806379ba50971461036f5780638da5cb5b1461038657806395d89b41146103dd578063a293d1e81461046d578063a9059cbb146104b8578063b5931f7c1461051d578063cae9ca5114610568578063d05c78da14610613578063d4ee1d901461065e578063dc39d06d146106b5578063dd62ed3e1461071a578063e6cb901314610791578063f2fde38b146107dc575b600080fd5b34801561012357600080fd5b5061012c61081f565b6040518080602001828103825283818151815260200191508051906020019080838360005b8381101561016c578082015181840152602081019050610151565b50505050905090810190601f1680156101995780820380516001836020036101000a031916815260200191505b509250505060405180910390f35b3480156101b357600080fd5b506101f2600480360381019080803573ffffffffffffffffffffffffffffffffffffffff169060200190929190803590602001909291905050506108bd565b604051808215151515815260200191505060405180910390f35b34801561021857600080fd5b506102216109af565b6040518082815260200191505060405180910390f35b34801561024357600080fd5b506102a2600480360381019080803573ffffffffffffffffffffffffffffffffffffffff169060200190929190803573ffffffffffffffffffffffffffffffffffffffff169060200190929190803590602001909291905050506109fa565b604051808215151515815260200191505060405180910390f35b3480156102c857600080fd5b506102d1610c8a565b604051808260ff1660ff16815260200191505060405180910390f35b3480156102f957600080fd5b50610302610c9d565b6040518082815260200191505060405180910390f35b34801561032457600080fd5b50610359600480360381019080803573ffffffffffffffffffffffffffffffffffffffff169060200190929190505050610ca3565b6040518082815260200191505060405180910390f35b34801561037b57600080fd5b50610384610cec565b005b34801561039257600080fd5b5061039b610e8b565b604051808273ffffffffffffffffffffffffffffffffffffffff1673ffffffffffffffffffffffffffffffffffffffff16815260200191505060405180910390f35b3480156103e957600080fd5b506103f2610eb0565b6040518080602001828103825283818151815260200191508051906020019080838360005b83811015610432578082015181840152602081019050610417565b50505050905090810190601f16801561045f5780820380516001836020036101000a031916815260200191505b509250505060405180910390f35b34801561047957600080fd5b506104a26004803603810190808035906020019092919080359060200190929190505050610f4e565b6040518082815260200191505060405180910390f35b3480156104c457600080fd5b50610503600480360381019080803573ffffffffffffffffffffffffffffffffffffffff16906020019092919080359060200190929190505050610f6a565b604051808215151515815260200191505060405180910390f35b34801561052957600080fd5b5061055260048036038101908080359060200190929190803590602001909291905050506110f3565b6040518082815260200191505060405180910390f35b34801561057457600080fd5b506105f9600480360381019080803573ffffffffffffffffffffffffffffffffffffffff16906020019092919080359060200190929190803590602001908201803590602001908080601f0160208091040260200160405190810160405280939291908181526020018383808284378201915050505050509192919290505050611117565b604051808215151515815260200191505060405180910390f35b34801561061f57600080fd5b506106486004803603810190808035906020019092919080359060200190929190505050611366565b6040518082815260200191505060405180910390f35b34801561066a57600080fd5b50610673611397565b604051808273ffffffffffffffffffffffffffffffffffffffff1673ffffffffffffffffffffffffffffffffffffffff16815260200191505060405180910390f35b3480156106c157600080fd5b50610700600480360381019080803573ffffffffffffffffffffffffffffffffffffffff169060200190929190803590602001909291905050506113bd565b604051808215151515815260200191505060405180910390f35b34801561072657600080fd5b5061077b600480360381019080803573ffffffffffffffffffffffffffffffffffffffff169060200190929190803573ffffffffffffffffffffffffffffffffffffffff169060200190929190505050611521565b6040518082815260200191505060405180910390f35b34801561079d57600080fd5b506107c660048036038101908080359060200190929190803590602001909291905050506115a8565b6040518082815260200191505060405180910390f35b3480156107e857600080fd5b5061081d600480360381019080803573ffffffffffffffffffffffffffffffffffffffff1690602001909291905050506115c4565b005b60038054600181600116156101000203166002900480601f0160208091040260200160405190810160405280929190818152602001828054600181600116156101000203166002900480156108b55780601f1061088a576101008083540402835291602001916108b5565b820191906000526020600020905b81548152906001019060200180831161089857829003601f168201915b505050505081565b600081600760003373ffffffffffffffffffffffffffffffffffffffff1673ffffffffffffffffffffffffffffffffffffffff16815260200190815260200160002060008573ffffffffffffffffffffffffffffffffffffffff1673ffffffffffffffffffffffffffffffffffffffff168152602001908152602001600020819055508273ffffffffffffffffffffffffffffffffffffffff163373ffffffffffffffffffffffffffffffffffffffff167f8c5be1e5ebec7d5bd14f71427d1e84f3dd0314c0f7b2291e5b200ac8c7c3b925846040518082815260200191505060405180910390a36001905092915050565b6000600660008073ffffffffffffffffffffffffffffffffffffffff1673ffffffffffffffffffffffffffffffffffffffff1681526020019081526020016000205460055403905090565b6000610a45600660008673ffffffffffffffffffffffffffffffffffffffff1673ffffffffffffffffffffffffffffffffffffffff1681526020019081526020016000205483610f4e565b600660008673ffffffffffffffffffffffffffffffffffffffff1673ffffffffffffffffffffffffffffffffffffffff16815260200190815260200160002081905550610b0e600760008673ffffffffffffffffffffffffffffffffffffffff1673ffffffffffffffffffffffffffffffffffffffff16815260200190815260200160002060003373ffffffffffffffffffffffffffffffffffffffff1673ffffffffffffffffffffffffffffffffffffffff1681526020019081526020016000205483610f4e565b600760008673ffffffffffffffffffffffffffffffffffffffff1673ffffffffffffffffffffffffffffffffffffffff16815260200190815260200160002060003373ffffffffffffffffffffffffffffffffffffffff1673ffffffffffffffffffffffffffffffffffffffff16815260200190815260200160002081905550610bd7600660008573ffffffffffffffffffffffffffffffffffffffff1673ffffffffffffffffffffffffffffffffffffffff16815260200190815260200160002054836115a8565b600660008573ffffffffffffffffffffffffffffffffffffffff1673ffffffffffffffffffffffffffffffffffffffff168152602001908152602001600020819055508273ffffffffffffffffffffffffffffffffffffffff168473ffffffffffffffffffffffffffffffffffffffff167fddf252ad1be2c89b69c2b068fc378daa952ba7f163c4a11628f55a4df523b3ef846040518082815260200191505060405180910390a3600190509392505050565b600460009054906101000a900460ff1681565b60055481565b6000600660008373ffffffffffffffffffffffffffffffffffffffff1673ffffffffffffffffffffffffffffffffffffffff168152602001908152602001600020549050919050565b600160009054906101000a900473ffffffffffffffffffffffffffffffffffffffff1673ffffffffffffffffffffffffffffffffffffffff163373ffffffffffffffffffffffffffffffffffffffff16141515610d4857600080fd5b600160009054906101000a900473ffffffffffffffffffffffffffffffffffffffff1673ffffffffffffffffffffffffffffffffffffffff166000809054906101000a900473ffffffffffffffffffffffffffffffffffffffff1673ffffffffffffffffffffffffffffffffffffffff167f8be0079c531659141344cd1fd0a4f28419497f9722a3daafe3b4186f6b6457e060405160405180910390a3600160009054906101000a900473ffffffffffffffffffffffffffffffffffffffff166000806101000a81548173ffffffffffffffffffffffffffffffffffffffff021916908373ffffffffffffffffffffffffffffffffffffffff1602179055506000600160006101000a81548173ffffffffffffffffffffffffffffffffffffffff021916908373ffffffffffffffffffffffffffffffffffffffff160217905550565b6000809054906101000a900473ffffffffffffffffffffffffffffffffffffffff1681565b60028054600181600116156101000203166002900480601f016020809104026020016040519081016040528092919081815260200182805460018160011615610100020316600290048015610f465780601f10610f1b57610100808354040283529160200191610f46565b820191906000526020600020905b815481529060010190602001808311610f2957829003601f168201915b505050505081565b6000828211151515610f5f57600080fd5b818303905092915050565b6000610fb5600660003373ffffffffffffffffffffffffffffffffffffffff1673ffffffffffffffffffffffffffffffffffffffff1681526020019081526020016000205483610f4e565b600660003373ffffffffffffffffffffffffffffffffffffffff1673ffffffffffffffffffffffffffffffffffffffff16815260200190815260200160002081905550611041600660008573ffffffffffffffffffffffffffffffffffffffff1673ffffffffffffffffffffffffffffffffffffffff16815260200190815260200160002054836115a8565b600660008573ffffffffffffffffffffffffffffffffffffffff1673ffffffffffffffffffffffffffffffffffffffff168152602001908152602001600020819055508273ffffffffffffffffffffffffffffffffffffffff163373ffffffffffffffffffffffffffffffffffffffff167fddf252ad1be2c89b69c2b068fc378daa952ba7f163c4a11628f55a4df523b3ef846040518082815260200191505060405180910390a36001905092915050565b6000808211151561110357600080fd5b818381151561110e57fe5b04905092915050565b600082600760003373ffffffffffffffffffffffffffffffffffffffff1673ffffffffffffffffffffffffffffffffffffffff16815260200190815260200160002060008673ffffffffffffffffffffffffffffffffffffffff1673ffffffffffffffffffffffffffffffffffffffff168152602001908152602001600020819055508373ffffffffffffffffffffffffffffffffffffffff163373ffffffffffffffffffffffffffffffffffffffff167f8c5be1e5ebec7d5bd14f71427d1e84f3dd0314c0f7b2291e5b200ac8c7c3b925856040518082815260200191505060405180910390a38373ffffffffffffffffffffffffffffffffffffffff16638f4ffcb1338530866040518563ffffffff167c0100000000000000000000000000000000000000000000000000000000028152600401808573ffffffffffffffffffffffffffffffffffffffff1673ffffffffffffffffffffffffffffffffffffffff1681526020018481526020018373ffffffffffffffffffffffffffffffffffffffff1673ffffffffffffffffffffffffffffffffffffffff16815260200180602001828103825283818151815260200191508051906020019080838360005b838110156112f45780820151818401526020810190506112d9565b50505050905090810190601f1680156113215780820380516001836020036101000a031916815260200191505b5095505050505050600060405180830381600087803b15801561134357600080fd5b505af1158015611357573d6000803e3d6000fd5b50505050600190509392505050565b600081830290506000831480611386575081838281151561138357fe5b04145b151561139157600080fd5b92915050565b600160009054906101000a900473ffffffffffffffffffffffffffffffffffffffff1681565b60008060009054906101000a900473ffffffffffffffffffffffffffffffffffffffff1673ffffffffffffffffffffffffffffffffffffffff163373ffffffffffffffffffffffffffffffffffffffff1614151561141a57600080fd5b8273ffffffffffffffffffffffffffffffffffffffff1663a9059cbb6000809054906101000a900473ffffffffffffffffffffffffffffffffffffffff16846040518363ffffffff167c0100000000000000000000000000000000000000000000000000000000028152600401808373ffffffffffffffffffffffffffffffffffffffff1673ffffffffffffffffffffffffffffffffffffffff16815260200182815260200192505050602060405180830381600087803b1580156114de57600080fd5b505af11580156114f2573d6000803e3d6000fd5b505050506040513d602081101561150857600080fd5b8101908080519060200190929190505050905092915050565b6000600760008473ffffffffffffffffffffffffffffffffffffffff1673ffffffffffffffffffffffffffffffffffffffff16815260200190815260200160002060008373ffffffffffffffffffffffffffffffffffffffff1673ffffffffffffffffffffffffffffffffffffffff16815260200190815260200160002054905092915050565b600081830190508281101515156115be57600080fd5b92915050565b6000809054906101000a900473ffffffffffffffffffffffffffffffffffffffff1673ffffffffffffffffffffffffffffffffffffffff163373ffffffffffffffffffffffffffffffffffffffff1614151561161f57600080fd5b80600160006101000a81548173ffffffffffffffffffffffffffffffffffffffff021916908373ffffffffffffffffffffffffffffffffffffffff160217905550505600a165627a7a723058207abba8338804d207fd78d097f4e29a84de3c41b5bdc2cad44b71bb63f2ed89320029",
  "source": "pragma solidity ^0.4.15;\r\n\r\n// ----------------------------------------------------------------------------\r\n// 'CRSK' token contract\r\n//\r\n// Deployed to : 0xc75c2c010ed1dc7f868f09bdab647878b68d5780\r\n// Symbol      : CRSK\r\n// Name        : Crysk Token\r\n// Total supply: 100000000\r\n// Decimals    : 18\r\n// Deployed at : 0x4e9e4fc702dff0fe1ad24ab768f61470d1184168\r\n// Enjoy.\r\n//\r\n// (c) by Moritz Neto with BokkyPooBah / Bok Consulting Pty Ltd Au 2017. The MIT Licence.\r\n// ----------------------------------------------------------------------------\r\n\r\n\r\n// ----------------------------------------------------------------------------\r\n// Safe maths\r\n// ----------------------------------------------------------------------------\r\ncontract SafeMath {\r\n    function safeAdd(uint a, uint b) public pure returns (uint c) {\r\n        c = a + b;\r\n        require(c >= a);\r\n    }\r\n    function safeSub(uint a, uint b) public pure returns (uint c) {\r\n        require(b <= a);\r\n        c = a - b;\r\n    }\r\n    function safeMul(uint a, uint b) public pure returns (uint c) {\r\n        c = a * b;\r\n        require(a == 0 || c / a == b);\r\n    }\r\n    function safeDiv(uint a, uint b) public pure returns (uint c) {\r\n        require(b > 0);\r\n        c = a / b;\r\n    }\r\n}\r\n\r\n\r\n// ----------------------------------------------------------------------------\r\n// ERC Token Standard #20 Interface\r\n// https://github.com/ethereum/EIPs/blob/master/EIPS/eip-20-token-standard.md\r\n// ----------------------------------------------------------------------------\r\ncontract ERC20Interface {\r\n    function totalSupply() public constant returns (uint);\r\n    function balanceOf(address tokenOwner) public constant returns (uint balance);\r\n    function allowance(address tokenOwner, address spender) public constant returns (uint remaining);\r\n    function transfer(address to, uint tokens) public returns (bool success);\r\n    function approve(address spender, uint tokens) public returns (bool success);\r\n    function transferFrom(address from, address to, uint tokens) public returns (bool success);\r\n\r\n    event Transfer(address indexed from, address indexed to, uint tokens);\r\n    event Approval(address indexed tokenOwner, address indexed spender, uint tokens);\r\n}\r\n\r\n\r\n// ----------------------------------------------------------------------------\r\n// Contract function to receive approval and execute function in one call\r\n//\r\n// Borrowed from MiniMeToken\r\n// ----------------------------------------------------------------------------\r\ncontract ApproveAndCallFallBack {\r\n    function receiveApproval(address from, uint256 tokens, address token, bytes data) public;\r\n}\r\n\r\n\r\n// ----------------------------------------------------------------------------\r\n// Owned contract\r\n// ----------------------------------------------------------------------------\r\ncontract Owned {\r\n    address public owner;\r\n    address public newOwner;\r\n\r\n    event OwnershipTransferred(address indexed _from, address indexed _to);\r\n\r\n    constructor() public {\r\n        owner = msg.sender;\r\n    }\r\n\r\n    modifier onlyOwner {\r\n        require(msg.sender == owner);\r\n        _;\r\n    }\r\n\r\n    function transferOwnership(address _newOwner) public onlyOwner {\r\n        newOwner = _newOwner;\r\n    }\r\n    function acceptOwnership() public {\r\n        require(msg.sender == newOwner);\r\n        emit OwnershipTransferred(owner, newOwner);\r\n        owner = newOwner;\r\n        newOwner = address(0);\r\n    }\r\n}\r\n\r\n\r\n// ----------------------------------------------------------------------------\r\n// ERC20 Token, with the addition of symbol, name and decimals and assisted\r\n// token transfers\r\n// ----------------------------------------------------------------------------\r\ncontract CryskToken is ERC20Interface, Owned, SafeMath {\r\n    string public symbol;\r\n    string public  name;\r\n    uint8 public decimals;\r\n    uint public _totalSupply;\r\n\r\n    mapping(address => uint) balances;\r\n    mapping(address => mapping(address => uint)) allowed;\r\n\r\n\r\n    // ------------------------------------------------------------------------\r\n    // Constructor\r\n    // ------------------------------------------------------------------------\r\n    constructor() public {\r\n        symbol = \"CRSK\";\r\n        name = \"Crysk Token\";\r\n        decimals = 0;\r\n        _totalSupply = 10000000;\r\n        balances[0xc75c2c010ed1dc7f868f09bdab647878b68d5780] = _totalSupply;\r\n        emit Transfer(address(0), 0xc75c2c010ed1dc7f868f09bdab647878b68d5780, _totalSupply);\r\n    }\r\n\r\n\r\n    // ------------------------------------------------------------------------\r\n    // Total supply\r\n    // ------------------------------------------------------------------------\r\n    function totalSupply() public constant returns (uint) {\r\n        return _totalSupply  - balances[address(0)];\r\n    }\r\n\r\n\r\n    // ------------------------------------------------------------------------\r\n    // Get the token balance for account tokenOwner\r\n    // ------------------------------------------------------------------------\r\n    function balanceOf(address tokenOwner) public constant returns (uint balance) {\r\n        return balances[tokenOwner];\r\n    }\r\n\r\n\r\n    // ------------------------------------------------------------------------\r\n    // Transfer the balance from token owner's account to to account\r\n    // - Owner's account must have sufficient balance to transfer\r\n    // - 0 value transfers are allowed\r\n    // ------------------------------------------------------------------------\r\n    function transfer(address to, uint tokens) public returns (bool success) {\r\n        balances[msg.sender] = safeSub(balances[msg.sender], tokens);\r\n        balances[to] = safeAdd(balances[to], tokens);\r\n        emit Transfer(msg.sender, to, tokens);\r\n        return true;\r\n    }\r\n\r\n\r\n    // ------------------------------------------------------------------------\r\n    // Token owner can approve for spender to transferFrom(...) tokens\r\n    // from the token owner's account\r\n    //\r\n    // https://github.com/ethereum/EIPs/blob/master/EIPS/eip-20-token-standard.md\r\n    // recommends that there are no checks for the approval double-spend attack\r\n    // as this should be implemented in user interfaces \r\n    // ------------------------------------------------------------------------\r\n    function approve(address spender, uint tokens) public returns (bool success) {\r\n        allowed[msg.sender][spender] = tokens;\r\n        emit Approval(msg.sender, spender, tokens);\r\n        return true;\r\n    }\r\n\r\n\r\n    // ------------------------------------------------------------------------\r\n    // Transfer tokens from the from account to the to account\r\n    // \r\n    // The calling account must already have sufficient tokens approve(...)-d\r\n    // for spending from the from account and\r\n    // - From account must have sufficient balance to transfer\r\n    // - Spender must have sufficient allowance to transfer\r\n    // - 0 value transfers are allowed\r\n    // ------------------------------------------------------------------------\r\n    function transferFrom(address from, address to, uint tokens) public returns (bool success) {\r\n        balances[from] = safeSub(balances[from], tokens);\r\n        allowed[from][msg.sender] = safeSub(allowed[from][msg.sender], tokens);\r\n        balances[to] = safeAdd(balances[to], tokens);\r\n        emit Transfer(from, to, tokens);\r\n        return true;\r\n    }\r\n\r\n\r\n    // ------------------------------------------------------------------------\r\n    // Returns the amount of tokens approved by the owner that can be\r\n    // transferred to the spender's account\r\n    // ------------------------------------------------------------------------\r\n    function allowance(address tokenOwner, address spender) public constant returns (uint remaining) {\r\n        return allowed[tokenOwner][spender];\r\n    }\r\n\r\n\r\n    // ------------------------------------------------------------------------\r\n    // Token owner can approve for spender to transferFrom(...) tokens\r\n    // from the token owner's account. The spender contract function\r\n    // receiveApproval(...) is then executed\r\n    // ------------------------------------------------------------------------\r\n    function approveAndCall(address spender, uint tokens, bytes data) public returns (bool success) {\r\n        allowed[msg.sender][spender] = tokens;\r\n        emit Approval(msg.sender, spender, tokens);\r\n        ApproveAndCallFallBack(spender).receiveApproval(msg.sender, tokens, this, data);\r\n        return true;\r\n    }\r\n\r\n\r\n    // ------------------------------------------------------------------------\r\n    // Don't accept ETH\r\n    // ------------------------------------------------------------------------\r\n    function () public payable {\r\n        revert();\r\n    }\r\n\r\n\r\n    // ------------------------------------------------------------------------\r\n    // Owner can transfer out any accidentally sent ERC20 tokens\r\n    // ------------------------------------------------------------------------\r\n    function transferAnyERC20Token(address tokenAddress, uint tokens) public onlyOwner returns (bool success) {\r\n        return ERC20Interface(tokenAddress).transfer(owner, tokens);\r\n    }\r\n}",
  "sourcePath": "C:\\Users\\mauri\\Desktop\\CryskLoom\\contracts\\cryskToken.sol",
  "compiler": {
    "name": "solc",
    "version": "0.4.24+commit.e67f0147.Emscripten.clang"
  },
  "schemaVersion": "2.0.1",
  "updatedAt": "2018-11-04T14:58:00.683Z"
}