{
  "contractName": "playersContract",
  "abi": [
    {
      "constant": true,
      "inputs": [],
      "name": "owner",
      "outputs": [
        {
          "name": "",
          "type": "address"
        }
      ],
      "payable": false,
      "stateMutability": "view",
      "type": "function"
    },
    {
      "constant": true,
      "inputs": [],
      "name": "playersCreated",
      "outputs": [
        {
          "name": "",
          "type": "uint256"
        }
      ],
      "payable": false,
      "stateMutability": "view",
      "type": "function"
    },
    {
      "constant": false,
      "inputs": [
        {
          "name": "newOwner",
          "type": "address"
        }
      ],
      "name": "transferOwnership",
      "outputs": [],
      "payable": false,
      "stateMutability": "nonpayable",
      "type": "function"
    },
    {
      "constant": true,
      "inputs": [
        {
          "name": "",
          "type": "uint256"
        }
      ],
      "name": "players",
      "outputs": [
        {
          "name": "adr",
          "type": "address"
        },
        {
          "name": "army",
          "type": "uint256"
        },
        {
          "name": "level",
          "type": "uint256"
        },
        {
          "name": "expPts",
          "type": "uint256"
        },
        {
          "name": "team",
          "type": "string"
        },
        {
          "name": "armyDamage",
          "type": "uint256"
        },
        {
          "name": "armyDefense",
          "type": "uint256"
        },
        {
          "name": "totalOwned",
          "type": "uint256"
        },
        {
          "name": "upgrades",
          "type": "uint256"
        }
      ],
      "payable": false,
      "stateMutability": "view",
      "type": "function"
    },
    {
      "inputs": [
        {
          "name": "adr",
          "type": "address"
        }
      ],
      "payable": false,
      "stateMutability": "nonpayable",
      "type": "constructor"
    },
    {
      "anonymous": false,
      "inputs": [
        {
          "indexed": false,
          "name": "adr",
          "type": "address"
        }
      ],
      "name": "buyArmies",
      "type": "event"
    },
    {
      "anonymous": false,
      "inputs": [
        {
          "indexed": false,
          "name": "adr",
          "type": "address"
        }
      ],
      "name": "playerCreated",
      "type": "event"
    },
    {
      "anonymous": false,
      "inputs": [
        {
          "indexed": false,
          "name": "adr",
          "type": "address"
        },
        {
          "indexed": false,
          "name": "level",
          "type": "uint256"
        },
        {
          "indexed": false,
          "name": "team",
          "type": "string"
        },
        {
          "indexed": false,
          "name": "nick",
          "type": "string"
        }
      ],
      "name": "nextLevel",
      "type": "event"
    },
    {
      "anonymous": false,
      "inputs": [
        {
          "indexed": false,
          "name": "adr",
          "type": "address"
        },
        {
          "indexed": false,
          "name": "name",
          "type": "string"
        },
        {
          "indexed": false,
          "name": "nick",
          "type": "string"
        }
      ],
      "name": "changedTeam",
      "type": "event"
    },
    {
      "anonymous": false,
      "inputs": [
        {
          "indexed": false,
          "name": "adr",
          "type": "address"
        },
        {
          "indexed": false,
          "name": "nick",
          "type": "string"
        },
        {
          "indexed": false,
          "name": "oldnick",
          "type": "string"
        }
      ],
      "name": "changedNickname",
      "type": "event"
    },
    {
      "anonymous": false,
      "inputs": [
        {
          "indexed": false,
          "name": "adr",
          "type": "address"
        },
        {
          "indexed": false,
          "name": "toggle",
          "type": "bool"
        }
      ],
      "name": "upgraded",
      "type": "event"
    },
    {
      "anonymous": false,
      "inputs": [
        {
          "indexed": true,
          "name": "previousOwner",
          "type": "address"
        },
        {
          "indexed": true,
          "name": "newOwner",
          "type": "address"
        }
      ],
      "name": "OwnershipTransferred",
      "type": "event"
    },
    {
      "constant": false,
      "inputs": [
        {
          "name": "logicAdr",
          "type": "address"
        },
        {
          "name": "actionsAdr",
          "type": "address"
        },
        {
          "name": "marketPlaceAdr",
          "type": "address"
        },
        {
          "name": "attacksAdr",
          "type": "address"
        }
      ],
      "name": "setValidAddress",
      "outputs": [
        {
          "name": "",
          "type": "bool"
        }
      ],
      "payable": false,
      "stateMutability": "nonpayable",
      "type": "function"
    },
    {
      "constant": true,
      "inputs": [
        {
          "name": "adr",
          "type": "address"
        }
      ],
      "name": "getNickname",
      "outputs": [
        {
          "name": "",
          "type": "string"
        }
      ],
      "payable": false,
      "stateMutability": "view",
      "type": "function"
    },
    {
      "constant": true,
      "inputs": [
        {
          "name": "adr",
          "type": "address"
        }
      ],
      "name": "getExistence",
      "outputs": [
        {
          "name": "",
          "type": "bool"
        }
      ],
      "payable": false,
      "stateMutability": "view",
      "type": "function"
    },
    {
      "constant": true,
      "inputs": [
        {
          "name": "adr",
          "type": "address"
        }
      ],
      "name": "getLevelPower",
      "outputs": [
        {
          "name": "",
          "type": "uint256"
        }
      ],
      "payable": false,
      "stateMutability": "view",
      "type": "function"
    },
    {
      "constant": true,
      "inputs": [
        {
          "name": "adr",
          "type": "address"
        }
      ],
      "name": "getLevelDefense",
      "outputs": [
        {
          "name": "",
          "type": "uint256"
        }
      ],
      "payable": false,
      "stateMutability": "view",
      "type": "function"
    },
    {
      "constant": true,
      "inputs": [
        {
          "name": "adr",
          "type": "address"
        }
      ],
      "name": "getArmy",
      "outputs": [
        {
          "name": "",
          "type": "uint256"
        }
      ],
      "payable": false,
      "stateMutability": "view",
      "type": "function"
    },
    {
      "constant": true,
      "inputs": [
        {
          "name": "adr",
          "type": "address"
        }
      ],
      "name": "getLevel",
      "outputs": [
        {
          "name": "",
          "type": "uint256"
        }
      ],
      "payable": false,
      "stateMutability": "view",
      "type": "function"
    },
    {
      "constant": true,
      "inputs": [
        {
          "name": "adr",
          "type": "address"
        }
      ],
      "name": "getExpPts",
      "outputs": [
        {
          "name": "",
          "type": "uint256"
        }
      ],
      "payable": false,
      "stateMutability": "view",
      "type": "function"
    },
    {
      "constant": true,
      "inputs": [
        {
          "name": "adr",
          "type": "address"
        }
      ],
      "name": "getTeam",
      "outputs": [
        {
          "name": "",
          "type": "string"
        }
      ],
      "payable": false,
      "stateMutability": "view",
      "type": "function"
    },
    {
      "constant": true,
      "inputs": [
        {
          "name": "adr",
          "type": "address"
        }
      ],
      "name": "getArmyDamage",
      "outputs": [
        {
          "name": "",
          "type": "uint256"
        }
      ],
      "payable": false,
      "stateMutability": "view",
      "type": "function"
    },
    {
      "constant": true,
      "inputs": [
        {
          "name": "adr",
          "type": "address"
        }
      ],
      "name": "getArmyDefense",
      "outputs": [
        {
          "name": "",
          "type": "uint256"
        }
      ],
      "payable": false,
      "stateMutability": "view",
      "type": "function"
    },
    {
      "constant": true,
      "inputs": [
        {
          "name": "adr",
          "type": "address"
        }
      ],
      "name": "getTotalOwned",
      "outputs": [
        {
          "name": "",
          "type": "uint256"
        }
      ],
      "payable": false,
      "stateMutability": "view",
      "type": "function"
    },
    {
      "constant": true,
      "inputs": [
        {
          "name": "adr",
          "type": "address"
        }
      ],
      "name": "getUpgrades",
      "outputs": [
        {
          "name": "",
          "type": "uint256"
        }
      ],
      "payable": false,
      "stateMutability": "view",
      "type": "function"
    },
    {
      "constant": false,
      "inputs": [
        {
          "name": "adr",
          "type": "address"
        }
      ],
      "name": "checkLevelExp",
      "outputs": [
        {
          "name": "",
          "type": "bool"
        }
      ],
      "payable": false,
      "stateMutability": "nonpayable",
      "type": "function"
    },
    {
      "constant": false,
      "inputs": [
        {
          "name": "adr",
          "type": "address"
        }
      ],
      "name": "newPlayer",
      "outputs": [
        {
          "name": "",
          "type": "bool"
        }
      ],
      "payable": false,
      "stateMutability": "nonpayable",
      "type": "function"
    },
    {
      "constant": false,
      "inputs": [
        {
          "name": "adr",
          "type": "address"
        },
        {
          "name": "quantity",
          "type": "uint256"
        },
        {
          "name": "price",
          "type": "uint256"
        },
        {
          "name": "value",
          "type": "uint256"
        }
      ],
      "name": "buyArmy",
      "outputs": [],
      "payable": false,
      "stateMutability": "nonpayable",
      "type": "function"
    },
    {
      "constant": false,
      "inputs": [
        {
          "name": "adr1",
          "type": "address"
        },
        {
          "name": "adr2",
          "type": "address"
        },
        {
          "name": "toggle",
          "type": "bool"
        }
      ],
      "name": "updatePossessions",
      "outputs": [],
      "payable": false,
      "stateMutability": "nonpayable",
      "type": "function"
    },
    {
      "constant": false,
      "inputs": [
        {
          "name": "adr",
          "type": "address"
        },
        {
          "name": "toggle",
          "type": "bool"
        }
      ],
      "name": "upgradePower",
      "outputs": [],
      "payable": false,
      "stateMutability": "nonpayable",
      "type": "function"
    },
    {
      "constant": false,
      "inputs": [
        {
          "name": "adr",
          "type": "address"
        },
        {
          "name": "team",
          "type": "string"
        }
      ],
      "name": "changeTeam",
      "outputs": [],
      "payable": false,
      "stateMutability": "nonpayable",
      "type": "function"
    },
    {
      "constant": false,
      "inputs": [
        {
          "name": "adr",
          "type": "address"
        },
        {
          "name": "amount",
          "type": "uint256"
        },
        {
          "name": "toggle",
          "type": "bool"
        }
      ],
      "name": "changeArmy",
      "outputs": [],
      "payable": false,
      "stateMutability": "nonpayable",
      "type": "function"
    },
    {
      "constant": false,
      "inputs": [
        {
          "name": "adr",
          "type": "address"
        },
        {
          "name": "amount",
          "type": "uint256"
        }
      ],
      "name": "addExpPts",
      "outputs": [],
      "payable": false,
      "stateMutability": "nonpayable",
      "type": "function"
    },
    {
      "constant": false,
      "inputs": [
        {
          "name": "adr",
          "type": "address"
        },
        {
          "name": "nick",
          "type": "string"
        }
      ],
      "name": "changeNickname",
      "outputs": [],
      "payable": false,
      "stateMutability": "nonpayable",
      "type": "function"
    }
  ],
  "bytecode": "0x60806040523480156200001157600080fd5b5060405160208062003dd3833981018060405281019080805190602001909291905050506200003f62000309565b336000806101000a81548173ffffffffffffffffffffffffffffffffffffffff021916908373ffffffffffffffffffffffffffffffffffffffff160217905550816000806101000a81548173ffffffffffffffffffffffffffffffffffffffff021916908373ffffffffffffffffffffffffffffffffffffffff1602179055506000600260006101000a81548173ffffffffffffffffffffffffffffffffffffffff021916908373ffffffffffffffffffffffffffffffffffffffff1602179055506000600360006101000a81548173ffffffffffffffffffffffffffffffffffffffff021916908373ffffffffffffffffffffffffffffffffffffffff1602179055506000600460006101000a81548173ffffffffffffffffffffffffffffffffffffffff021916908373ffffffffffffffffffffffffffffffffffffffff16021790555061012060405190810160405280600073ffffffffffffffffffffffffffffffffffffffff1681526020016000815260200160008152602001600081526020016040805190810160405280600e81526020017f6e6f207465616d2063686f73656e0000000000000000000000000000000000008152508152602001600081526020016000815260200160008152602001600081525090506001819080600181540180825580915050906001820390600052602060002090600902016000909192909190915060008201518160000160006101000a81548173ffffffffffffffffffffffffffffffffffffffff021916908373ffffffffffffffffffffffffffffffffffffffff1602179055506020820151816001015560408201518160020155606082015181600301556080820151816004019080519060200190620002cc9291906200036c565b5060a0820151816005015560c0820151816006015560e082015181600701556101008201518160080155505050600060068190555050506200041b565b61012060405190810160405280600073ffffffffffffffffffffffffffffffffffffffff16815260200160008152602001600081526020016000815260200160608152602001600081526020016000815260200160008152602001600081525090565b828054600181600116156101000203166002900490600052602060002090601f016020900481019282601f10620003af57805160ff1916838001178555620003e0565b82800160010185558215620003e0579182015b82811115620003df578251825591602001919060010190620003c2565b5b509050620003ef9190620003f3565b5090565b6200041891905b8082111562000414576000816000905550600101620003fa565b5090565b90565b6139a8806200042b6000396000f300608060405260043610610154576000357c0100000000000000000000000000000000000000000000000000000000900463ffffffff168063049b002a146101595780630b2d447c146101a85780631228b9dd1461020357806316e8f2c31461025e5780633174b8c1146102b557806341becb321461031057806353d7da60146103675780636e2cf7d3146103be5780637570d33614610419578063817c89661461047057806385c5ce4d146104c757806387529f0f146105205780638da5cb5b146105dc5780639cd4316614610633578063a18869791461068a578063adaccd74146106d7578063b49634df14610793578063be29adf6146107ea578063c364e6f114610841578063c780933f146108fc578063d1bad09b14610927578063df84092a1461097e578063e52c65d8146109ed578063f2fde38b14610a4e578063f71d96cb14610a91578063f81a3bc714610b9b575b600080fd5b34801561016557600080fd5b506101a6600480360381019080803573ffffffffffffffffffffffffffffffffffffffff169060200190929190803515159060200190929190505050610bf6565b005b3480156101b457600080fd5b506101e9600480360381019080803573ffffffffffffffffffffffffffffffffffffffff169060200190929190505050611013565b604051808215151515815260200191505060405180910390f35b34801561020f57600080fd5b50610244600480360381019080803573ffffffffffffffffffffffffffffffffffffffff169060200190929190505050611081565b604051808215151515815260200191505060405180910390f35b34801561026a57600080fd5b5061029f600480360381019080803573ffffffffffffffffffffffffffffffffffffffff1690602001909291905050506115ed565b6040518082815260200191505060405180910390f35b3480156102c157600080fd5b506102f6600480360381019080803573ffffffffffffffffffffffffffffffffffffffff16906020019092919050505061168d565b604051808215151515815260200191505060405180910390f35b34801561031c57600080fd5b50610351600480360381019080803573ffffffffffffffffffffffffffffffffffffffff169060200190929190505050611cb3565b6040518082815260200191505060405180910390f35b34801561037357600080fd5b506103a8600480360381019080803573ffffffffffffffffffffffffffffffffffffffff169060200190929190505050611cff565b6040518082815260200191505060405180910390f35b3480156103ca57600080fd5b50610417600480360381019080803573ffffffffffffffffffffffffffffffffffffffff169060200190929190803590602001908201803590602001919091929391929390505050611d4b565b005b34801561042557600080fd5b5061045a600480360381019080803573ffffffffffffffffffffffffffffffffffffffff1690602001909291905050506120d2565b6040518082815260200191505060405180910390f35b34801561047c57600080fd5b506104b1600480360381019080803573ffffffffffffffffffffffffffffffffffffffff16906020019092919050505061211e565b6040518082815260200191505060405180910390f35b3480156104d357600080fd5b5061051e600480360381019080803573ffffffffffffffffffffffffffffffffffffffff1690602001909291908035906020019092919080351515906020019092919050505061216a565b005b34801561052c57600080fd5b50610561600480360381019080803573ffffffffffffffffffffffffffffffffffffffff16906020019092919050505061242a565b6040518080602001828103825283818151815260200191508051906020019080838360005b838110156105a1578082015181840152602081019050610586565b50505050905090810190601f1680156105ce5780820380516001836020036101000a031916815260200191505b509250505060405180910390f35b3480156105e857600080fd5b506105f161250e565b604051808273ffffffffffffffffffffffffffffffffffffffff1673ffffffffffffffffffffffffffffffffffffffff16815260200191505060405180910390f35b34801561063f57600080fd5b50610674600480360381019080803573ffffffffffffffffffffffffffffffffffffffff169060200190929190505050612533565b6040518082815260200191505060405180910390f35b34801561069657600080fd5b506106d5600480360381019080803573ffffffffffffffffffffffffffffffffffffffff169060200190929190803590602001909291905050506125d3565b005b3480156106e357600080fd5b50610718600480360381019080803573ffffffffffffffffffffffffffffffffffffffff1690602001909291905050506127e0565b6040518080602001828103825283818151815260200191508051906020019080838360005b8381101561075857808201518184015260208101905061073d565b50505050905090810190601f1680156107855780820380516001836020036101000a031916815260200191505b509250505060405180910390f35b34801561079f57600080fd5b506107d4600480360381019080803573ffffffffffffffffffffffffffffffffffffffff169060200190929190505050612933565b6040518082815260200191505060405180910390f35b3480156107f657600080fd5b5061082b600480360381019080803573ffffffffffffffffffffffffffffffffffffffff16906020019092919050505061297f565b6040518082815260200191505060405180910390f35b34801561084d57600080fd5b506108e2600480360381019080803573ffffffffffffffffffffffffffffffffffffffff169060200190929190803573ffffffffffffffffffffffffffffffffffffffff169060200190929190803573ffffffffffffffffffffffffffffffffffffffff169060200190929190803573ffffffffffffffffffffffffffffffffffffffff1690602001909291905050506129cb565b604051808215151515815260200191505060405180910390f35b34801561090857600080fd5b50610911612b34565b6040518082815260200191505060405180910390f35b34801561093357600080fd5b50610968600480360381019080803573ffffffffffffffffffffffffffffffffffffffff169060200190929190505050612b3a565b6040518082815260200191505060405180910390f35b34801561098a57600080fd5b506109eb600480360381019080803573ffffffffffffffffffffffffffffffffffffffff169060200190929190803573ffffffffffffffffffffffffffffffffffffffff169060200190929190803515159060200190929190505050612b86565b005b3480156109f957600080fd5b50610a4c600480360381019080803573ffffffffffffffffffffffffffffffffffffffff169060200190929190803590602001909291908035906020019092919080359060200190929190505050612e6d565b005b348015610a5a57600080fd5b50610a8f600480360381019080803573ffffffffffffffffffffffffffffffffffffffff169060200190929190505050613178565b005b348015610a9d57600080fd5b50610abc600480360381019080803590602001909291905050506132cd565b604051808a73ffffffffffffffffffffffffffffffffffffffff1673ffffffffffffffffffffffffffffffffffffffff16815260200189815260200188815260200187815260200180602001868152602001858152602001848152602001838152602001828103825287818151815260200191508051906020019080838360005b83811015610b58578082015181840152602081019050610b3d565b50505050905090810190601f168015610b855780820380516001836020036101000a031916815260200191505b509a505050505050505050505060405180910390f35b348015610ba757600080fd5b50610bf4600480360381019080803573ffffffffffffffffffffffffffffffffffffffff1690602001909291908035906020019082018035906020019190919293919293905050506133e2565b005b600260009054906101000a900473ffffffffffffffffffffffffffffffffffffffff1673ffffffffffffffffffffffffffffffffffffffff163373ffffffffffffffffffffffffffffffffffffffff161480610c9f5750600360009054906101000a900473ffffffffffffffffffffffffffffffffffffffff1673ffffffffffffffffffffffffffffffffffffffff163373ffffffffffffffffffffffffffffffffffffffff16145b80610cf75750600460009054906101000a900473ffffffffffffffffffffffffffffffffffffffff1673ffffffffffffffffffffffffffffffffffffffff163373ffffffffffffffffffffffffffffffffffffffff16145b80610d4f5750600560009054906101000a900473ffffffffffffffffffffffffffffffffffffffff1673ffffffffffffffffffffffffffffffffffffffff163373ffffffffffffffffffffffffffffffffffffffff16145b1515610d5a57600080fd5b6000600760008473ffffffffffffffffffffffffffffffffffffffff1673ffffffffffffffffffffffffffffffffffffffff16815260200190815260200160002060080154111515610dab57600080fd5b610e016001600760008573ffffffffffffffffffffffffffffffffffffffff1673ffffffffffffffffffffffffffffffffffffffff168152602001908152602001600020600801546136ea90919063ffffffff16565b600760008473ffffffffffffffffffffffffffffffffffffffff1673ffffffffffffffffffffffffffffffffffffffff16815260200190815260200160002060080181905550600015158115151415610ef557610eaa6002600760008573ffffffffffffffffffffffffffffffffffffffff1673ffffffffffffffffffffffffffffffffffffffff1681526020019081526020016000206005015461370390919063ffffffff16565b600760008473ffffffffffffffffffffffffffffffffffffffff1673ffffffffffffffffffffffffffffffffffffffff16815260200190815260200160002060050181905550610fa0565b600115158115151415610f9f57610f586002600760008573ffffffffffffffffffffffffffffffffffffffff1673ffffffffffffffffffffffffffffffffffffffff1681526020019081526020016000206006015461370390919063ffffffff16565b600760008473ffffffffffffffffffffffffffffffffffffffff1673ffffffffffffffffffffffffffffffffffffffff168152602001908152602001600020600601819055505b5b7fa17d81bb5d031f2fee26559ea00fdbe8153fd340d5ff8e30b4e01fda64b55a818282604051808373ffffffffffffffffffffffffffffffffffffffff1673ffffffffffffffffffffffffffffffffffffffff168152602001821515151581526020019250505060405180910390a15050565b600060011515600860008473ffffffffffffffffffffffffffffffffffffffff1673ffffffffffffffffffffffffffffffffffffffff16815260200190815260200160002060009054906101000a900460ff1615151415611077576001905061107c565b600090505b919050565b600061108b61376d565b600260009054906101000a900473ffffffffffffffffffffffffffffffffffffffff1673ffffffffffffffffffffffffffffffffffffffff163373ffffffffffffffffffffffffffffffffffffffff1614806111345750600360009054906101000a900473ffffffffffffffffffffffffffffffffffffffff1673ffffffffffffffffffffffffffffffffffffffff163373ffffffffffffffffffffffffffffffffffffffff16145b8061118c5750600460009054906101000a900473ffffffffffffffffffffffffffffffffffffffff1673ffffffffffffffffffffffffffffffffffffffff163373ffffffffffffffffffffffffffffffffffffffff16145b806111e45750600560009054906101000a900473ffffffffffffffffffffffffffffffffffffffff1673ffffffffffffffffffffffffffffffffffffffff163373ffffffffffffffffffffffffffffffffffffffff16145b15156111ef57600080fd5b60011515600860008573ffffffffffffffffffffffffffffffffffffffff1673ffffffffffffffffffffffffffffffffffffffff16815260200190815260200160002060009054906101000a900460ff1615151415151561124f57600080fd5b61012060405190810160405280600073ffffffffffffffffffffffffffffffffffffffff1681526020016000815260200160018152602001600081526020016040805190810160405280600e81526020017f6e6f207465616d2063686f73656e0000000000000000000000000000000000008152508152602001600181526020016001815260200160008152602001600081525090506001819080600181540180825580915050906001820390600052602060002090600902016000909192909190915060008201518160000160006101000a81548173ffffffffffffffffffffffffffffffffffffffff021916908373ffffffffffffffffffffffffffffffffffffffff16021790555060208201518160010155604082015181600201556060820151816003015560808201518160040190805190602001906113949291906137d0565b5060a0820151816005015560c0820151816006015560e08201518160070155610100820151816008015550505060016113db600180805490506136ea90919063ffffffff16565b8154811015156113e757fe5b9060005260206000209060090201600760008573ffffffffffffffffffffffffffffffffffffffff1673ffffffffffffffffffffffffffffffffffffffff1681526020019081526020016000206000820160009054906101000a900473ffffffffffffffffffffffffffffffffffffffff168160000160006101000a81548173ffffffffffffffffffffffffffffffffffffffff021916908373ffffffffffffffffffffffffffffffffffffffff160217905550600182015481600101556002820154816002015560038201548160030155600482018160040190805460018160011615610100020316600290046114e0929190613850565b50600582015481600501556006820154816006015560078201548160070155600882015481600801559050506001600860008573ffffffffffffffffffffffffffffffffffffffff1673ffffffffffffffffffffffffffffffffffffffff16815260200190815260200160002060006101000a81548160ff02191690831515021790555061157a600160065461373b90919063ffffffff16565b6006819055507fef73c768c0266e49717d7139ebf978312d6812dac326a7131908d967e3e612bb83604051808273ffffffffffffffffffffffffffffffffffffffff1673ffffffffffffffffffffffffffffffffffffffff16815260200191505060405180910390a16001915050919050565b6000611686600760008473ffffffffffffffffffffffffffffffffffffffff1673ffffffffffffffffffffffffffffffffffffffff16815260200190815260200160002060060154600760008573ffffffffffffffffffffffffffffffffffffffff1673ffffffffffffffffffffffffffffffffffffffff1681526020019081526020016000206002015461370390919063ffffffff16565b9050919050565b6000600260009054906101000a900473ffffffffffffffffffffffffffffffffffffffff1673ffffffffffffffffffffffffffffffffffffffff163373ffffffffffffffffffffffffffffffffffffffff1614806117385750600360009054906101000a900473ffffffffffffffffffffffffffffffffffffffff1673ffffffffffffffffffffffffffffffffffffffff163373ffffffffffffffffffffffffffffffffffffffff16145b806117905750600460009054906101000a900473ffffffffffffffffffffffffffffffffffffffff1673ffffffffffffffffffffffffffffffffffffffff163373ffffffffffffffffffffffffffffffffffffffff16145b806117e85750600560009054906101000a900473ffffffffffffffffffffffffffffffffffffffff1673ffffffffffffffffffffffffffffffffffffffff163373ffffffffffffffffffffffffffffffffffffffff16145b15156117f357600080fd5b6118496032600760008573ffffffffffffffffffffffffffffffffffffffff1673ffffffffffffffffffffffffffffffffffffffff1681526020019081526020016000206002015461370390919063ffffffff16565b600760008473ffffffffffffffffffffffffffffffffffffffff1673ffffffffffffffffffffffffffffffffffffffff168152602001908152602001600020600301541180156118db5750600a600760008473ffffffffffffffffffffffffffffffffffffffff1673ffffffffffffffffffffffffffffffffffffffff16815260200190815260200160002060020154105b15611ca9576119366001600760008573ffffffffffffffffffffffffffffffffffffffff1673ffffffffffffffffffffffffffffffffffffffff1681526020019081526020016000206002015461373b90919063ffffffff16565b600760008473ffffffffffffffffffffffffffffffffffffffff1673ffffffffffffffffffffffffffffffffffffffff168152602001908152602001600020600201819055506000600760008473ffffffffffffffffffffffffffffffffffffffff1673ffffffffffffffffffffffffffffffffffffffff16815260200190815260200160002060030181905550611a1a6001600760008573ffffffffffffffffffffffffffffffffffffffff1673ffffffffffffffffffffffffffffffffffffffff1681526020019081526020016000206008015461373b90919063ffffffff16565b600760008473ffffffffffffffffffffffffffffffffffffffff1673ffffffffffffffffffffffffffffffffffffffff168152602001908152602001600020600801819055507ffbf02bda06ba9b7d3fadf837de6f96b002f3480dd09b21ee68eb5f76e4af483782600760008573ffffffffffffffffffffffffffffffffffffffff1673ffffffffffffffffffffffffffffffffffffffff16815260200190815260200160002060020154600760008673ffffffffffffffffffffffffffffffffffffffff1673ffffffffffffffffffffffffffffffffffffffff168152602001908152602001600020600401600960008773ffffffffffffffffffffffffffffffffffffffff1673ffffffffffffffffffffffffffffffffffffffff168152602001908152602001600020604051808573ffffffffffffffffffffffffffffffffffffffff1673ffffffffffffffffffffffffffffffffffffffff1681526020018481526020018060200180602001838103835285818154600181600116156101000203166002900481526020019150805460018160011615610100020316600290048015611c0b5780601f10611be057610100808354040283529160200191611c0b565b820191906000526020600020905b815481529060010190602001808311611bee57829003601f168201915b5050838103825284818154600181600116156101000203166002900481526020019150805460018160011615610100020316600290048015611c8e5780601f10611c6357610100808354040283529160200191611c8e565b820191906000526020600020905b815481529060010190602001808311611c7157829003601f168201915b5050965050505050505060405180910390a160019050611cae565b600090505b919050565b6000600760008373ffffffffffffffffffffffffffffffffffffffff1673ffffffffffffffffffffffffffffffffffffffff168152602001908152602001600020600701549050919050565b6000600760008373ffffffffffffffffffffffffffffffffffffffff1673ffffffffffffffffffffffffffffffffffffffff168152602001908152602001600020600101549050919050565b6060600260009054906101000a900473ffffffffffffffffffffffffffffffffffffffff1673ffffffffffffffffffffffffffffffffffffffff163373ffffffffffffffffffffffffffffffffffffffff161480611df65750600360009054906101000a900473ffffffffffffffffffffffffffffffffffffffff1673ffffffffffffffffffffffffffffffffffffffff163373ffffffffffffffffffffffffffffffffffffffff16145b80611e4e5750600460009054906101000a900473ffffffffffffffffffffffffffffffffffffffff1673ffffffffffffffffffffffffffffffffffffffff163373ffffffffffffffffffffffffffffffffffffffff16145b80611ea65750600560009054906101000a900473ffffffffffffffffffffffffffffffffffffffff1673ffffffffffffffffffffffffffffffffffffffff163373ffffffffffffffffffffffffffffffffffffffff16145b1515611eb157600080fd5b600960008573ffffffffffffffffffffffffffffffffffffffff1673ffffffffffffffffffffffffffffffffffffffff1681526020019081526020016000208054600181600116156101000203166002900480601f016020809104026020016040519081016040528092919081815260200182805460018160011615610100020316600290048015611f845780601f10611f5957610100808354040283529160200191611f84565b820191906000526020600020905b815481529060010190602001808311611f6757829003601f168201915b505050505090508282600960008773ffffffffffffffffffffffffffffffffffffffff1673ffffffffffffffffffffffffffffffffffffffff1681526020019081526020016000209190611fd99291906138d7565b507f6b8ec6383361d3724b387e216219f5f460f9018baeb7596f125f2f7d02c7fa4d84848484604051808573ffffffffffffffffffffffffffffffffffffffff1673ffffffffffffffffffffffffffffffffffffffff168152602001806020018060200183810383528686828181526020019250808284378201915050838103825284818151815260200191508051906020019080838360005b8381101561208e578082015181840152602081019050612073565b50505050905090810190601f1680156120bb5780820380516001836020036101000a031916815260200191505b50965050505050505060405180910390a150505050565b6000600760008373ffffffffffffffffffffffffffffffffffffffff1673ffffffffffffffffffffffffffffffffffffffff168152602001908152602001600020600501549050919050565b6000600760008373ffffffffffffffffffffffffffffffffffffffff1673ffffffffffffffffffffffffffffffffffffffff168152602001908152602001600020600201549050919050565b600260009054906101000a900473ffffffffffffffffffffffffffffffffffffffff1673ffffffffffffffffffffffffffffffffffffffff163373ffffffffffffffffffffffffffffffffffffffff1614806122135750600360009054906101000a900473ffffffffffffffffffffffffffffffffffffffff1673ffffffffffffffffffffffffffffffffffffffff163373ffffffffffffffffffffffffffffffffffffffff16145b8061226b5750600460009054906101000a900473ffffffffffffffffffffffffffffffffffffffff1673ffffffffffffffffffffffffffffffffffffffff163373ffffffffffffffffffffffffffffffffffffffff16145b806122c35750600560009054906101000a900473ffffffffffffffffffffffffffffffffffffffff1673ffffffffffffffffffffffffffffffffffffffff163373ffffffffffffffffffffffffffffffffffffffff16145b15156122ce57600080fd5b60011515811515141561237b5761233082600760008673ffffffffffffffffffffffffffffffffffffffff1673ffffffffffffffffffffffffffffffffffffffff168152602001908152602001600020600101546136ea90919063ffffffff16565b600760008573ffffffffffffffffffffffffffffffffffffffff1673ffffffffffffffffffffffffffffffffffffffff16815260200190815260200160002060010181905550612425565b600015158115151415612424576123dd82600760008673ffffffffffffffffffffffffffffffffffffffff1673ffffffffffffffffffffffffffffffffffffffff1681526020019081526020016000206001015461373b90919063ffffffff16565b600760008573ffffffffffffffffffffffffffffffffffffffff1673ffffffffffffffffffffffffffffffffffffffff168152602001908152602001600020600101819055505b5b505050565b6060600760008373ffffffffffffffffffffffffffffffffffffffff1673ffffffffffffffffffffffffffffffffffffffff1681526020019081526020016000206004018054600181600116156101000203166002900480601f0160208091040260200160405190810160405280929190818152602001828054600181600116156101000203166002900480156125025780601f106124d757610100808354040283529160200191612502565b820191906000526020600020905b8154815290600101906020018083116124e557829003601f168201915b50505050509050919050565b6000809054906101000a900473ffffffffffffffffffffffffffffffffffffffff1681565b60006125cc600760008473ffffffffffffffffffffffffffffffffffffffff1673ffffffffffffffffffffffffffffffffffffffff16815260200190815260200160002060050154600760008573ffffffffffffffffffffffffffffffffffffffff1673ffffffffffffffffffffffffffffffffffffffff1681526020019081526020016000206002015461370390919063ffffffff16565b9050919050565b600260009054906101000a900473ffffffffffffffffffffffffffffffffffffffff1673ffffffffffffffffffffffffffffffffffffffff163373ffffffffffffffffffffffffffffffffffffffff16148061267c5750600360009054906101000a900473ffffffffffffffffffffffffffffffffffffffff1673ffffffffffffffffffffffffffffffffffffffff163373ffffffffffffffffffffffffffffffffffffffff16145b806126d45750600460009054906101000a900473ffffffffffffffffffffffffffffffffffffffff1673ffffffffffffffffffffffffffffffffffffffff163373ffffffffffffffffffffffffffffffffffffffff16145b8061272c5750600560009054906101000a900473ffffffffffffffffffffffffffffffffffffffff1673ffffffffffffffffffffffffffffffffffffffff163373ffffffffffffffffffffffffffffffffffffffff16145b151561273757600080fd5b61278c81600760008573ffffffffffffffffffffffffffffffffffffffff1673ffffffffffffffffffffffffffffffffffffffff1681526020019081526020016000206003015461373b90919063ffffffff16565b600760008473ffffffffffffffffffffffffffffffffffffffff1673ffffffffffffffffffffffffffffffffffffffff168152602001908152602001600020600301819055506127db8261168d565b505050565b606060011515600860008473ffffffffffffffffffffffffffffffffffffffff1673ffffffffffffffffffffffffffffffffffffffff16815260200190815260200160002060009054906101000a900460ff161515141561291a57600960008373ffffffffffffffffffffffffffffffffffffffff1673ffffffffffffffffffffffffffffffffffffffff1681526020019081526020016000208054600181600116156101000203166002900480601f01602080910402602001604051908101604052809291908181526020018280546001816001161561010002031660029004801561290e5780601f106128e35761010080835404028352916020019161290e565b820191906000526020600020905b8154815290600101906020018083116128f157829003601f168201915b5050505050905061292e565b602060405190810160405280600081525090505b919050565b6000600760008373ffffffffffffffffffffffffffffffffffffffff1673ffffffffffffffffffffffffffffffffffffffff168152602001908152602001600020600801549050919050565b6000600760008373ffffffffffffffffffffffffffffffffffffffff1673ffffffffffffffffffffffffffffffffffffffff168152602001908152602001600020600601549050919050565b60008060009054906101000a900473ffffffffffffffffffffffffffffffffffffffff1673ffffffffffffffffffffffffffffffffffffffff163373ffffffffffffffffffffffffffffffffffffffff16141515612a2857600080fd5b84600260006101000a81548173ffffffffffffffffffffffffffffffffffffffff021916908373ffffffffffffffffffffffffffffffffffffffff16021790555083600360006101000a81548173ffffffffffffffffffffffffffffffffffffffff021916908373ffffffffffffffffffffffffffffffffffffffff16021790555082600460006101000a81548173ffffffffffffffffffffffffffffffffffffffff021916908373ffffffffffffffffffffffffffffffffffffffff16021790555081600560006101000a81548173ffffffffffffffffffffffffffffffffffffffff021916908373ffffffffffffffffffffffffffffffffffffffff160217905550949350505050565b60065481565b6000600760008373ffffffffffffffffffffffffffffffffffffffff1673ffffffffffffffffffffffffffffffffffffffff168152602001908152602001600020600301549050919050565b600260009054906101000a900473ffffffffffffffffffffffffffffffffffffffff1673ffffffffffffffffffffffffffffffffffffffff163373ffffffffffffffffffffffffffffffffffffffff161480612c2f5750600360009054906101000a900473ffffffffffffffffffffffffffffffffffffffff1673ffffffffffffffffffffffffffffffffffffffff163373ffffffffffffffffffffffffffffffffffffffff16145b80612c875750600460009054906101000a900473ffffffffffffffffffffffffffffffffffffffff1673ffffffffffffffffffffffffffffffffffffffff163373ffffffffffffffffffffffffffffffffffffffff16145b80612cdf5750600560009054906101000a900473ffffffffffffffffffffffffffffffffffffffff1673ffffffffffffffffffffffffffffffffffffffff163373ffffffffffffffffffffffffffffffffffffffff16145b1515612cea57600080fd5b612d406001600760008673ffffffffffffffffffffffffffffffffffffffff1673ffffffffffffffffffffffffffffffffffffffff1681526020019081526020016000206007015461373b90919063ffffffff16565b600760008573ffffffffffffffffffffffffffffffffffffffff1673ffffffffffffffffffffffffffffffffffffffff168152602001908152602001600020600701819055508273ffffffffffffffffffffffffffffffffffffffff168273ffffffffffffffffffffffffffffffffffffffff1614158015612dc6575060011515811515145b15612e6857612e216001600760008573ffffffffffffffffffffffffffffffffffffffff1673ffffffffffffffffffffffffffffffffffffffff168152602001908152602001600020600701546136ea90919063ffffffff16565b600760008473ffffffffffffffffffffffffffffffffffffffff1673ffffffffffffffffffffffffffffffffffffffff168152602001908152602001600020600701819055505b505050565b6000600260009054906101000a900473ffffffffffffffffffffffffffffffffffffffff1673ffffffffffffffffffffffffffffffffffffffff163373ffffffffffffffffffffffffffffffffffffffff161480612f185750600360009054906101000a900473ffffffffffffffffffffffffffffffffffffffff1673ffffffffffffffffffffffffffffffffffffffff163373ffffffffffffffffffffffffffffffffffffffff16145b80612f705750600460009054906101000a900473ffffffffffffffffffffffffffffffffffffffff1673ffffffffffffffffffffffffffffffffffffffff163373ffffffffffffffffffffffffffffffffffffffff16145b80612fc85750600560009054906101000a900473ffffffffffffffffffffffffffffffffffffffff1673ffffffffffffffffffffffffffffffffffffffff163373ffffffffffffffffffffffffffffffffffffffff16145b1515612fd357600080fd5b61303a600760008773ffffffffffffffffffffffffffffffffffffffff1673ffffffffffffffffffffffffffffffffffffffff1681526020019081526020016000206002015461302c868661370390919063ffffffff16565b61375790919063ffffffff16565b9050613062613053600a8361375790919063ffffffff16565b8261373b90919063ffffffff16565b905080821015151561307357600080fd5b6130c884600760008873ffffffffffffffffffffffffffffffffffffffff1673ffffffffffffffffffffffffffffffffffffffff1681526020019081526020016000206001015461373b90919063ffffffff16565b600760008773ffffffffffffffffffffffffffffffffffffffff1673ffffffffffffffffffffffffffffffffffffffff168152602001908152602001600020600101819055507fef67891291c81f78ebc1065159109c42b5a61daac560ad70a56b5c7c30247f8985604051808273ffffffffffffffffffffffffffffffffffffffff1673ffffffffffffffffffffffffffffffffffffffff16815260200191505060405180910390a15050505050565b6000809054906101000a900473ffffffffffffffffffffffffffffffffffffffff1673ffffffffffffffffffffffffffffffffffffffff163373ffffffffffffffffffffffffffffffffffffffff161415156131d357600080fd5b600073ffffffffffffffffffffffffffffffffffffffff168173ffffffffffffffffffffffffffffffffffffffff161415151561320f57600080fd5b8073ffffffffffffffffffffffffffffffffffffffff166000809054906101000a900473ffffffffffffffffffffffffffffffffffffffff1673ffffffffffffffffffffffffffffffffffffffff167f8be0079c531659141344cd1fd0a4f28419497f9722a3daafe3b4186f6b6457e060405160405180910390a3806000806101000a81548173ffffffffffffffffffffffffffffffffffffffff021916908373ffffffffffffffffffffffffffffffffffffffff16021790555050565b6001818154811015156132dc57fe5b90600052602060002090600902016000915090508060000160009054906101000a900473ffffffffffffffffffffffffffffffffffffffff1690806001015490806002015490806003015490806004018054600181600116156101000203166002900480601f0160208091040260200160405190810160405280929190818152602001828054600181600116156101000203166002900480156133c05780601f10613395576101008083540402835291602001916133c0565b820191906000526020600020905b8154815290600101906020018083116133a357829003601f168201915b5050505050908060050154908060060154908060070154908060080154905089565b600260009054906101000a900473ffffffffffffffffffffffffffffffffffffffff1673ffffffffffffffffffffffffffffffffffffffff163373ffffffffffffffffffffffffffffffffffffffff16148061348b5750600360009054906101000a900473ffffffffffffffffffffffffffffffffffffffff1673ffffffffffffffffffffffffffffffffffffffff163373ffffffffffffffffffffffffffffffffffffffff16145b806134e35750600460009054906101000a900473ffffffffffffffffffffffffffffffffffffffff1673ffffffffffffffffffffffffffffffffffffffff163373ffffffffffffffffffffffffffffffffffffffff16145b8061353b5750600560009054906101000a900473ffffffffffffffffffffffffffffffffffffffff1673ffffffffffffffffffffffffffffffffffffffff163373ffffffffffffffffffffffffffffffffffffffff16145b151561354657600080fd5b8181600760008673ffffffffffffffffffffffffffffffffffffffff1673ffffffffffffffffffffffffffffffffffffffff16815260200190815260200160002060040191906135979291906138d7565b507fb9d06cc5946fea1c4b4b4fa5343c77805d9e760e9c1f6d4b41ce4b389d549dce838383600960008873ffffffffffffffffffffffffffffffffffffffff1673ffffffffffffffffffffffffffffffffffffffff168152602001908152602001600020604051808573ffffffffffffffffffffffffffffffffffffffff1673ffffffffffffffffffffffffffffffffffffffff1681526020018060200180602001838103835286868281815260200192508082843782019150508381038252848181546001816001161561010002031660029004815260200191508054600181600116156101000203166002900480156136d35780601f106136a8576101008083540402835291602001916136d3565b820191906000526020600020905b8154815290600101906020018083116136b657829003601f168201915b5050965050505050505060405180910390a1505050565b60008282111515156136f857fe5b818303905092915050565b6000808314156137165760009050613735565b818302905081838281151561372757fe5b0414151561373157fe5b8090505b92915050565b6000818301905082811015151561374e57fe5b80905092915050565b6000818381151561376457fe5b04905092915050565b61012060405190810160405280600073ffffffffffffffffffffffffffffffffffffffff16815260200160008152602001600081526020016000815260200160608152602001600081526020016000815260200160008152602001600081525090565b828054600181600116156101000203166002900490600052602060002090601f016020900481019282601f1061381157805160ff191683800117855561383f565b8280016001018555821561383f579182015b8281111561383e578251825591602001919060010190613823565b5b50905061384c9190613957565b5090565b828054600181600116156101000203166002900490600052602060002090601f016020900481019282601f1061388957805485556138c6565b828001600101855582156138c657600052602060002091601f016020900482015b828111156138c55782548255916001019190600101906138aa565b5b5090506138d39190613957565b5090565b828054600181600116156101000203166002900490600052602060002090601f016020900481019282601f1061391857803560ff1916838001178555613946565b82800160010185558215613946579182015b8281111561394557823582559160200191906001019061392a565b5b5090506139539190613957565b5090565b61397991905b8082111561397557600081600090555060010161395d565b5090565b905600a165627a7a72305820f86f2ab8067f00944fc955c2906f74a60466a4065e5eaa7a9bfa1c52027689dc0029",
  "source": "pragma solidity ^0.4.15;\r\n//pragma experimental ABIEncoderV2;\r\n\r\nimport \"./Ownable.sol\";\r\nimport \"./SafeMath.sol\";\r\n\r\ncontract playersContract is Ownable {\r\n\r\n    using SafeMath for uint;\r\n\r\n    struct Player {\r\n        address adr;\r\n        uint army;\r\n        uint level;\r\n        uint expPts;\r\n        string team;\r\n        uint armyDamage;\r\n        uint armyDefense;\r\n        uint totalOwned;\r\n        uint upgrades;\r\n    }\r\n\r\n    Player[] public players;\r\n    address logicContract;\r\n    address actionsContract;\r\n    address marketplaceContract;\r\n    address attacksContract;\r\n    uint public playersCreated;\r\n\r\n    mapping(address => Player) player;\r\n    mapping(address => bool) isPlayer;\r\n    mapping(address => string) nicknames;\r\n\r\n    event buyArmies(address adr);\r\n    event playerCreated(address adr);\r\n    event nextLevel(address adr, uint level, string team, string nick);\r\n    event changedTeam(address adr, string name, string nick);\r\n    event changedNickname(address adr, string nick, string oldnick);\r\n    event upgraded(address adr, bool toggle);\r\n\r\n    constructor(address adr) public {\r\n        owner = adr;\r\n        logicContract = 0x0;\r\n        actionsContract = 0x0;\r\n        marketplaceContract = 0x0;\r\n        Player memory newPlayer = Player(0x0,0,0,0,\"no team chosen\",0,0,0,0);\r\n        players.push(newPlayer);\r\n        playersCreated = 0;\r\n    }\r\n\r\n    //MODIFIERS\r\n    modifier onlyOwner {\r\n        require(msg.sender == owner);\r\n        _;\r\n    }\r\n\r\n    modifier validAddress  {\r\n        require(msg.sender == logicContract || msg.sender == actionsContract || msg.sender == marketplaceContract || msg.sender == attacksContract);\r\n        _;\r\n    }\r\n\r\n    //SET LOGIC CONTRACT\r\n    function setValidAddress(address logicAdr, address actionsAdr, address marketPlaceAdr, address attacksAdr) onlyOwner external returns (bool) {\r\n        logicContract = logicAdr;\r\n        actionsContract = actionsAdr;\r\n        marketplaceContract = marketPlaceAdr;\r\n        attacksContract = attacksAdr;\r\n    }\r\n\r\n    //Getters\r\n    function getNickname(address adr) external view returns (string) {\r\n        if(isPlayer[adr] == true) return nicknames[adr];\r\n        else return \"\";\r\n    }\r\n\r\n    function getExistence(address adr) external view returns (bool) {\r\n        if( isPlayer[adr] == true ) return true;\r\n        else return false;\r\n    }\r\n\r\n    function getLevelPower(address adr) external view returns(uint) {\r\n        return player[adr].level.mul(player[adr].armyDamage);\r\n    }\r\n\r\n    function getLevelDefense(address adr) external view returns(uint) {\r\n        return player[adr].level.mul(player[adr].armyDefense);\r\n    }\r\n\r\n    function getArmy(address adr) external view returns (uint) {\r\n        return player[adr].army;\r\n    }\r\n\r\n    function getLevel(address adr) external view returns (uint) {\r\n        return player[adr].level;\r\n    }\r\n\r\n    function getExpPts(address adr) external view returns (uint) {\r\n        return player[adr].expPts;\r\n    }\r\n\r\n    function getTeam(address adr) external view returns (string) {\r\n        return player[adr].team;\r\n    }\r\n\r\n    function getArmyDamage(address adr) external view returns (uint) {\r\n        return player[adr].armyDamage;\r\n    }\r\n\r\n    function getArmyDefense(address adr) external view returns (uint) {\r\n        return player[adr].armyDefense;\r\n    }\r\n\r\n    function getTotalOwned(address adr) external view returns (uint) {\r\n        return player[adr].totalOwned;\r\n    }\r\n\r\n    function getUpgrades(address adr) external view returns (uint) {\r\n        return player[adr].upgrades;\r\n    }\r\n\r\n    //Controllers\r\n    function checkLevelExp(address adr) validAddress public returns (bool) {\r\n        if(player[adr].expPts > player[adr].level.mul(50) && player[adr].level < 10 ) {\r\n            player[adr].level = player[adr].level.add(1);\r\n            player[adr].expPts = 0;\r\n            player[adr].upgrades = player[adr].upgrades.add(1);\r\n            emit nextLevel(adr, player[adr].level, player[adr].team, nicknames[adr]);\r\n            return true;\r\n        }\r\n        else return false;\r\n    }\r\n\r\n    //Generator\r\n    function newPlayer(address adr) validAddress external returns(bool) {\r\n        require(isPlayer[adr] != true);\r\n        Player memory _newPlayer = Player(0x0,0,1,0,\"no team chosen\",1,1,0,0);\r\n        players.push(_newPlayer);\r\n        player[adr] = players[players.length.sub(1)];\r\n        isPlayer[adr] = true;\r\n        playersCreated = playersCreated.add(1);\r\n        emit playerCreated(adr);\r\n        return true;\r\n    }\r\n\r\n    //Buy armies\r\n    function buyArmy(address adr, uint quantity, uint price, uint value) validAddress external {\r\n        uint tmp = price.mul(quantity).div(player[adr].level);\r\n        tmp = tmp.add(tmp.div(10));\r\n        require(value >= tmp);\r\n        player[adr].army = player[adr].army.add(quantity);\r\n        emit buyArmies(adr);\r\n    }\r\n\r\n    //Update possessions, remove one and add one to players add expPts to the new owner if toggle=true just add to adr1\r\n    function updatePossessions(address adr1, address adr2, bool toggle) validAddress external {\r\n        player[adr1].totalOwned = player[adr1].totalOwned.add(1);\r\n        if( adr2 != adr1 && toggle == true ) player[adr2].totalOwned = player[adr2].totalOwned.sub(1);\r\n    }\r\n\r\n    //Upgrades (toggle==0 attackDMG, toggle==1 defense)\r\n    function upgradePower(address adr, bool toggle) validAddress external {\r\n        require(player[adr].upgrades > 0);\r\n        player[adr].upgrades = player[adr].upgrades.sub(1);\r\n        if( toggle == false ) player[adr].armyDamage = player[adr].armyDamage.mul(2);\r\n        else if (toggle == true) player[adr].armyDefense = player[adr].armyDefense.mul(2);\r\n        emit upgraded(adr,toggle);\r\n    }\r\n\r\n    //Change team\r\n    function changeTeam(address adr, string team) validAddress external {\r\n        player[adr].team = team;\r\n        emit changedTeam(adr, team, nicknames[adr]);\r\n    }\r\n\r\n    //Remove or add armies toggle=false add, toggle=true remove\r\n    function changeArmy(address adr, uint amount, bool toggle) validAddress external {\r\n        if(toggle == true ) player[adr].army = player[adr].army.sub(amount);\r\n        else if (toggle == false ) player[adr].army = player[adr].army.add(amount);\r\n    }\r\n\r\n    //Add expPts (notice that reset to 0 once levelup is done in checkLevelExp() )\r\n    function addExpPts(address adr, uint amount) validAddress external {\r\n        player[adr].expPts = player[adr].expPts.add(amount);\r\n        checkLevelExp(adr);\r\n\r\n    }\r\n\r\n    //Change nickname\r\n    function changeNickname(address adr, string nick) validAddress external {\r\n        string memory oldnick = nicknames[adr];\r\n        nicknames[adr] = nick;\r\n        emit changedNickname(adr, nick, oldnick);\r\n    }\r\n\r\n\r\n}\r\n",
  "sourcePath": "C:\\Users\\mauri\\Desktop\\CryskLoom\\contracts\\playersContract.sol",
  "compiler": {
    "name": "solc",
    "version": "0.4.24+commit.e67f0147.Emscripten.clang"
  },
  "schemaVersion": "2.0.1",
  "updatedAt": "2018-11-04T14:58:24.532Z"
}